01R00024    000119901206CADEIRA GIRATORIA DE COURVIM C/ BRACOS E000001000        R00024                                                                          023223                                      N      000000000000000000                                      01 CADEIRA GIRATORIA DE COURVIM C/ BRACOS E13201001003         222301   31103010157         222301   13203001001                                                                  19901206        0000000000001007001000000000000000000000000000000000000000094634001000000000000000000000000000000000000000000000000000000000000000000000000000000000000000000000000000000000000000000000000000000000000000000000000010070000000000000000000000000000000000000000000000000000000000000000000000000000000000000000000946340000000000000000000000000000000000000000000000000000000000000000000000000000000000000000000000000000000000000000000000000000000000000000        00000000000000000000000000000000000000000019901206                                                     222301   222301                                                                           000000000000000000  0000000000000000000000000000000000000000000000000000000000000000000000                                                                      
01R00010    000119840627CADEIRA FIXA DE TECIDO C/ BRACOS        000001000        R00010                                                                          002180                                      N      000000000000000000                                      01 CADEIRA FIXA DE TECIDO C/ BRACOS        13201001003         222301   31103010157         222301   13203001001                                                                  19840627        0000000000001129001000000000000000000000000000000000000000106099001000000000000000000000000000000000000000000000000000000000000000000000000000000000000000000000000000000000000000000000000000000000000000000000000011290000000000000000000000000000000000000000000000000000000000000000000000000000000000000000001060990000000000000000000000000000000000000000000000000000000000000000000000000000000000000000000000000000000000000000000000000000000000000000        00000000000000000000000000000000000000000019840627                                                     222301   222301                                                                           000000000000000000  0000000000000000000000000000000000000000000000000000000000000000000000                                                                      
01R00011    000119840627CADEIRA FIXA DE TECIDO C/ BRACOS        000001000        R00011                                                                          002180                                      N      000000000000000000                                      01 CADEIRA FIXA DE TECIDO C/ BRACOS        13201001003         222301   31103010157         222301   13203001001                                                                  19840627        0000000000001129001000000000000000000000000000000000000000106099001000000000000000000000000000000000000000000000000000000000000000000000000000000000000000000000000000000000000000000000000000000000000000000000000011290000000000000000000000000000000000000000000000000000000000000000000000000000000000000000001060990000000000000000000000000000000000000000000000000000000000000000000000000000000000000000000000000000000000000000000000000000000000000000        00000000000000000000000000000000000000000019840627                                                     222301   222301                                                                           000000000000000000  0000000000000000000000000000000000000000000000000000000000000000000000                                                                      
01R00012    000119840627CADEIRA FIXA DE TECIDO C/ BRACOS        000001000        R00012                                                                          002180                                      N      000000000000000000                                      01 CADEIRA FIXA DE TECIDO C/ BRACOS        13201001003         222301   31103010157         222301   13203001001                                                                  19840627        0000000000001129001000000000000000000000000000000000000000106099001000000000000000000000000000000000000000000000000000000000000000000000000000000000000000000000000000000000000000000000000000000000000000000000000011290000000000000000000000000000000000000000000000000000000000000000000000000000000000000000001060990000000000000000000000000000000000000000000000000000000000000000000000000000000000000000000000000000000000000000000000000000000000000000        00000000000000000000000000000000000000000019840627                                                     222301   222301                                                                           000000000000000000  0000000000000000000000000000000000000000000000000000000000000000000000                                                                      
01R00013    000119840627CADEIRA FIXA DE TECIDO C/ BRACOS        000001000        R00013                                                                          002180                                      N      000000000000000000                                      01 CADEIRA FIXA DE TECIDO C/ BRACOS        13201001003         222301   31103010157         222301   13203001001                                                                  19840627        0000000000001129001000000000000000000000000000000000000000106099001000000000000000000000000000000000000000000000000000000000000000000000000000000000000000000000000000000000000000000000000000000000000000000000000011290000000000000000000000000000000000000000000000000000000000000000000000000000000000000000001060990000000000000000000000000000000000000000000000000000000000000000000000000000000000000000000000000000000000000000000000000000000000000000        00000000000000000000000000000000000000000019840627                                                     222301   222301                                                                           000000000000000000  0000000000000000000000000000000000000000000000000000000000000000000000                                                                      
01R00014    000119840627CADEIRA FIXA DE TECIDO C/ BRACOS        000001000        R00014                                                                          002180                                      N      000000000000000000                                      01 CADEIRA FIXA DE TECIDO C/ BRACOS        13201001003         222301   31103010157         222301   13203001001                                                                  19840627        0000000000001129001000000000000000000000000000000000000000106099001000000000000000000000000000000000000000000000000000000000000000000000000000000000000000000000000000000000000000000000000000000000000000000000000011290000000000000000000000000000000000000000000000000000000000000000000000000000000000000000001060990000000000000000000000000000000000000000000000000000000000000000000000000000000000000000000000000000000000000000000000000000000000000000        00000000000000000000000000000000000000000019840627                                                     222301   222301                                                                           000000000000000000  0000000000000000000000000000000000000000000000000000000000000000000000                                                                      
01R00015    000119840627CADEIRA FIXA DE TECIDO C/ BRACOS        000001000        R00015                                                                          002180                                      N      000000000000000000                                      01 CADEIRA FIXA DE TECIDO C/ BRACOS        13201001003         222301   31103010157         222301   13203001001                                                                  19840627        0000000000001129001000000000000000000000000000000000000000106099001000000000000000000000000000000000000000000000000000000000000000000000000000000000000000000000000000000000000000000000000000000000000000000000000011290000000000000000000000000000000000000000000000000000000000000000000000000000000000000000001060990000000000000000000000000000000000000000000000000000000000000000000000000000000000000000000000000000000000000000000000000000000000000000        00000000000000000000000000000000000000000019840627                                                     222301   222301                                                                           000000000000000000  0000000000000000000000000000000000000000000000000000000000000000000000                                                                      
01R00059    000119840627CADEIRA GIRATORIA DE COURVIM C/ RODIZIOS000001000        R00059                                                                          002180                                      N      000000000000000000                                      01 CADEIRA GIRATORIA DE COURVIM C/ RODIZIOS13201001003         222301   31103010157         222301   13203001001                                                                  19840627        0000000000002131001000000000000000000000000000000000000000200263001000000000000000000000000000000000000000000000000000000000000000000000000000000000000000000000000000000000000000000000000000000000000000000000000021310000000000000000000000000000000000000000000000000000000000000000000000000000000000000000002002630000000000000000000000000000000000000000000000000000000000000000000000000000000000000000000000000000000000000000000000000000000000000000        00000000000000000000000000000000000000000019840627                                                     222301   222301                                                                           000000000000000000  0000000000000000000000000000000000000000000000000000000000000000000000                                                                      
01R00065    000119840627CADEIRA GIRATORIA DE COURVIM C/ RODIZIOS000001000        R00065                                                                          002180                                      N      000000000000000000                                      01 CADEIRA GIRATORIA DE COURVIM C/ RODIZIOS13201001003         222301   31103010157         222301   13203001001                                                                  19840627        0000000000002131001000000000000000000000000000000000000000200263001000000000000000000000000000000000000000000000000000000000000000000000000000000000000000000000000000000000000000000000000000000000000000000000000021310000000000000000000000000000000000000000000000000000000000000000000000000000000000000000002002630000000000000000000000000000000000000000000000000000000000000000000000000000000000000000000000000000000000000000000000000000000000000000        00000000000000000000000000000000000000000019840627                                                     222301   222301                                                                           000000000000000000  0000000000000000000000000000000000000000000000000000000000000000000000                                                                      
01R00075    000119840627CADEIRA GIRATORIA DE COURVIM C/ RODIZIOS000001000        R00075                                                                          002180                                      N      000000000000000000                                      01 CADEIRA GIRATORIA DE COURVIM C/ RODIZIOS13201001003         222301   31103010157         222301   13203001001                                                                  19840627        0000000000002131001000000000000000000000000000000000000000200263001000000000000000000000000000000000000000000000000000000000000000000000000000000000000000000000000000000000000000000000000000000000000000000000000021310000000000000000000000000000000000000000000000000000000000000000000000000000000000000000002002630000000000000000000000000000000000000000000000000000000000000000000000000000000000000000000000000000000000000000000000000000000000000000        00000000000000000000000000000000000000000019840627                                                     222301   222301                                                                           000000000000000000  0000000000000000000000000000000000000000000000000000000000000000000000                                                                      
01R00199    000119840627CADEIRA GIRATORIA DE COURVIM MARROM     000001000        R00199                                                                          002180                                      N      000000000000000000                                      01 CADEIRA GIRATORIA DE COURVIM MARROM     13201001003         200101   31103010157         200101   13203001001                                                                  19840627        0000000000002131001000000000000000000000000000000000000000200263001000000000000000000000000000000000000000000000000000000000000000000000000000000000000000000000000000000000000000000000000000000000000000000000000021310000000000000000000000000000000000000000000000000000000000000000000000000000000000000000002002630000000000000000000000000000000000000000000000000000000000000000000000000000000000000000000000000000000000000000000000000000000000000000        00000000000000000000000000000000000000000019840627                                                     200101   200101                                                                           000000000000000000  0000000000000000000000000000000000000000000000000000000000000000000000                                                                      
01R00016    000119840627CADEIRA FIXA DE TECIDO C/ BRACOS        000001000        R00016                                                                          002180                                      N      000000000000000000                                      01 CADEIRA FIXA DE TECIDO C/ BRACOS        13201001003         222301   31103010157         222301   13203001001                                                                  19840627        0000000000002248001000000000000000000000000000000000000000211258001000000000000000000000000000000000000000000000000000000000000000000000000000000000000000000000000000000000000000000000000000000000000000000000000022480000000000000000000000000000000000000000000000000000000000000000000000000000000000000000002112580000000000000000000000000000000000000000000000000000000000000000000000000000000000000000000000000000000000000000000000000000000000000000        00000000000000000000000000000000000000000019840627                                                     222301   222301                                                                           000000000000000000  0000000000000000000000000000000000000000000000000000000000000000000000                                                                      
01R00017    000119840627CADEIRA FIXA DE TECIDO C/ BRACOS        000001000        R00017                                                                          002180                                      N      000000000000000000                                      01 CADEIRA FIXA DE TECIDO C/ BRACOS        13201001003         222301   31103010157         222301   13203001001                                                                  19840627        0000000000002248001000000000000000000000000000000000000000211258001000000000000000000000000000000000000000000000000000000000000000000000000000000000000000000000000000000000000000000000000000000000000000000000000022480000000000000000000000000000000000000000000000000000000000000000000000000000000000000000002112580000000000000000000000000000000000000000000000000000000000000000000000000000000000000000000000000000000000000000000000000000000000000000        00000000000000000000000000000000000000000019840627                                                     222301   222301                                                                           000000000000000000  0000000000000000000000000000000000000000000000000000000000000000000000                                                                      
01R00018    000119840627CADEIRA FIXA DE TECIDO C/ BRACOS        000001000        R00018                                                                          002180                                      N      000000000000000000                                      01 CADEIRA FIXA DE TECIDO C/ BRACOS        13201001003         222301   31103010157         222301   13203001001                                                                  19840627        0000000000002248001000000000000000000000000000000000000000211258001000000000000000000000000000000000000000000000000000000000000000000000000000000000000000000000000000000000000000000000000000000000000000000000000022480000000000000000000000000000000000000000000000000000000000000000000000000000000000000000002112580000000000000000000000000000000000000000000000000000000000000000000000000000000000000000000000000000000000000000000000000000000000000000        00000000000000000000000000000000000000000019840627                                                     222301   222301                                                                           000000000000000000  0000000000000000000000000000000000000000000000000000000000000000000000                                                                      
01R00019    000119840627CADEIRA FIXA DE TECIDO C/ BRACOS        000001000        R00019                                                                          002180                                      N      000000000000000000                                      01 CADEIRA FIXA DE TECIDO C/ BRACOS        13201001003         222301   31103010157         222301   13203001001                                                                  19840627        0000000000002248001000000000000000000000000000000000000000211258001000000000000000000000000000000000000000000000000000000000000000000000000000000000000000000000000000000000000000000000000000000000000000000000000022480000000000000000000000000000000000000000000000000000000000000000000000000000000000000000002112580000000000000000000000000000000000000000000000000000000000000000000000000000000000000000000000000000000000000000000000000000000000000000        00000000000000000000000000000000000000000019840627                                                     222301   222301                                                                           000000000000000000  0000000000000000000000000000000000000000000000000000000000000000000000                                                                      
01R00020    000119840627CADEIRA FIXA DE TECIDO C/ BRACOS        000001000        R00020                                                                          002180                                      N      000000000000000000                                      01 CADEIRA FIXA DE TECIDO C/ BRACOS        13201001003         222301   31103010157         222301   13203001001                                                                  19840627        0000000000002248001000000000000000000000000000000000000000211258001000000000000000000000000000000000000000000000000000000000000000000000000000000000000000000000000000000000000000000000000000000000000000000000000022480000000000000000000000000000000000000000000000000000000000000000000000000000000000000000002112580000000000000000000000000000000000000000000000000000000000000000000000000000000000000000000000000000000000000000000000000000000000000000        00000000000000000000000000000000000000000019840627                                                     222301   222301                                                                           000000000000000000  0000000000000000000000000000000000000000000000000000000000000000000000                                                                      
01R00021    000119840627CADEIRA FIXA DE TECIDO C/ BRACOS        000001000        R00021                                                                          002180                                      N      000000000000000000                                      01 CADEIRA FIXA DE TECIDO C/ BRACOS        13201001003         222301   31103010157         222301   13203001001                                                                  19840627        0000000000002248001000000000000000000000000000000000000000211258001000000000000000000000000000000000000000000000000000000000000000000000000000000000000000000000000000000000000000000000000000000000000000000000000022480000000000000000000000000000000000000000000000000000000000000000000000000000000000000000002112580000000000000000000000000000000000000000000000000000000000000000000000000000000000000000000000000000000000000000000000000000000000000000        00000000000000000000000000000000000000000019840627                                                     222301   222301                                                                           000000000000000000  0000000000000000000000000000000000000000000000000000000000000000000000                                                                      
01R70506    000119840627CADEIRA FIXA EM TECIDO NA COR VERDE CROM000001000        R70506                                                                          002180                                      N      000000000000000000                                      01 CADEIRA FIXA EM TECIDO NA COR VERDE CROM13201001003         200101   31103010157         200101   13203001001                                                                  19840627        0000000000002248001000000000000000000000000000000000000000211258001000000000000000000000000000000000000000000000000000000000000000000000000000000000000000000000000000000000000000000000000000000000000000000000000022480000000000000000000000000000000000000000000000000000000000000000000000000000000000000000002112580000000000000000000000000000000000000000000000000000000000000000000000000000000000000000000000000000000000000000000000000000000000000000        00000000000000000000000000000000000000000019840627                                                     200101   200101                                                                           000000000000000000  0000000000000000000000000000000000000000000000000000000000000000000000                                                                      
01R70507    000119840627CADEIRA FIXA EM TECIDO NA COR VERDE CROM000001000        R70507                                                                          002180                                      N      000000000000000000                                      01 CADEIRA FIXA EM TECIDO NA COR VERDE CROM13201001003         200101   31103010157         200101   13203001001                                                                  19840627        0000000000002248001000000000000000000000000000000000000000211258001000000000000000000000000000000000000000000000000000000000000000000000000000000000000000000000000000000000000000000000000000000000000000000000000022480000000000000000000000000000000000000000000000000000000000000000000000000000000000000000002112580000000000000000000000000000000000000000000000000000000000000000000000000000000000000000000000000000000000000000000000000000000000000000        00000000000000000000000000000000000000000019840627                                                     200101   200101                                                                           000000000000000000  0000000000000000000000000000000000000000000000000000000000000000000000                                                                      
01R70508    000119840627CADEIRA FIXA EM TECIDO NA COR VERDE CROM000001000        R70508                                                                          002180                                      N      000000000000000000                                      01 CADEIRA FIXA EM TECIDO NA COR VERDE CROM13201001003         200101   31103010157         200101   13203001001                                                                  19840627        0000000000002248001000000000000000000000000000000000000000211258001000000000000000000000000000000000000000000000000000000000000000000000000000000000000000000000000000000000000000000000000000000000000000000000000022480000000000000000000000000000000000000000000000000000000000000000000000000000000000000000002112580000000000000000000000000000000000000000000000000000000000000000000000000000000000000000000000000000000000000000000000000000000000000000        00000000000000000000000000000000000000000019840627                                                     200101   200101                                                                           000000000000000000  0000000000000000000000000000000000000000000000000000000000000000000000                                                                      
01R70509    000119840627CADEIRA FIXA EM TECIDO NA COR VERDE CROM000001000        R70509                                                                          002180                                      N      000000000000000000                                      01 CADEIRA FIXA EM TECIDO NA COR VERDE CROM13201001003         200101   31103010157         200101   13203001001                                                                  19840627        0000000000002248001000000000000000000000000000000000000000211258001000000000000000000000000000000000000000000000000000000000000000000000000000000000000000000000000000000000000000000000000000000000000000000000000022480000000000000000000000000000000000000000000000000000000000000000000000000000000000000000002112580000000000000000000000000000000000000000000000000000000000000000000000000000000000000000000000000000000000000000000000000000000000000000        00000000000000000000000000000000000000000019840627                                                     200101   200101                                                                           000000000000000000  0000000000000000000000000000000000000000000000000000000000000000000000                                                                      
01R00200    000119901218MESA DE MADEIRA REVESTIDA EM FORMICA C/ 000001000        R00200                                                                          023349                                      N      000000000000000000                                      01 MESA DE MADEIRA REVESTIDA EM FORMICA C/ 13201001003         200101   31103010157         200101   13203001001                                                                  19901218        0000000000002390001000000000000000000000000000000000000000224603001000000000000000000000000000000000000000000000000000000000000000000000000000000000000000000000000000000000000000000000000000000000000000000000000023900000000000000000000000000000000000000000000000000000000000000000000000000000000000000000002246030000000000000000000000000000000000000000000000000000000000000000000000000000000000000000000000000000000000000000000000000000000000000000        00000000000000000000000000000000000000000019901218                                                     200101   200101                                                                           000000000000000000  0000000000000000000000000000000000000000000000000000000000000000000000                                                                      
01R00202    000119901218MESA DE MADEIRA REVESTIDA EM FORMICA C/ 000001000        R00202                                                                          023349                                      N      000000000000000000                                      01 MESA DE MADEIRA REVESTIDA EM FORMICA C/ 13201001003         200101   31103010157         200101   13203001001                                                                  19901218        0000000000002390001000000000000000000000000000000000000000224603001000000000000000000000000000000000000000000000000000000000000000000000000000000000000000000000000000000000000000000000000000000000000000000000000023900000000000000000000000000000000000000000000000000000000000000000000000000000000000000000002246030000000000000000000000000000000000000000000000000000000000000000000000000000000000000000000000000000000000000000000000000000000000000000        00000000000000000000000000000000000000000019901218                                                     200101   200101                                                                           000000000000000000  0000000000000000000000000000000000000000000000000000000000000000000000                                                                      
01R70569    000119880706MESA MOD. MTI ECON NA COR BRANCO        000001000        R70569                                                                          061239                                      N      000000000000000000                                      01 MESA MOD. MTI ECON NA COR BRANCO        13201001003         200101   31103010157         200101   13203001001                                                                  19880706        0000000000004859001000000000000000000000000000000000000000456630001000000000000000000000000000000000000000000000000000000000000000000000000000000000000000000000000000000000000000000000000000000000000000000000000048590000000000000000000000000000000000000000000000000000000000000000000000000000000000000000004566300000000000000000000000000000000000000000000000000000000000000000000000000000000000000000000000000000000000000000000000000000000000000000        00000000000000000000000000000000000000000019880706                                                     200101   200101                                                                           000000000000000000  0000000000000000000000000000000000000000000000000000000000000000000000                                                                      
01R70584    000119901023ANEL DE RECAPAGEM 1010 X 20 G8          000001000        R70584                                                                          007908                                      N      000000000000000000                                      01 ANEL DE RECAPAGEM 1010 X 20 G8          13201001005         200101   31103010157         200101   13203001001                                                                  19901023        0000000000004859001000000000000000000000000000000000000000456630001000000000000000000000000000000000000000000000000000000000000000000000000000000000000000000000000000000000000000000000000000000000000000000000000048590000000000000000000000000000000000000000000000000000000000000000000000000000000000000000004566300000000000000000000000000000000000000000000000000000000000000000000000000000000000000000000000000000000000000000000000000000000000000000        00000000000000000000000000000000000000000019901023                                                     200101   200101                                                                           000000000000000000  0000000000000000000000000000000000000000000000000000000000000000000000                                                                      
01R70501    000119840710MESA EM CREJEIRA TOPO SEMI ARREDONDADO  000001000        R70501                                                                          002282                                      N      000000000000000000                                      01 MESA EM CREJEIRA TOPO SEMI ARREDONDADO  13201001003         200101   31103010157         200101   13203001001                                                                  19840710        0000000000005020001000000000000000000000000000000000000000471760001000000000000000000000000000000000000000000000000000000000000000000000000000000000000000000000000000000000000000000000000000000000000000000000000050200000000000000000000000000000000000000000000000000000000000000000000000000000000000000000004717600000000000000000000000000000000000000000000000000000000000000000000000000000000000000000000000000000000000000000000000000000000000000000        00000000000000000000000000000000000000000019840710                                                     200101   200101                                                                           000000000000000000  0000000000000000000000000000000000000000000000000000000000000000000000                                                                      
01R70541    000119841031ARO EXTERNO 650-10                      000001000        R70541                                                                          048446                                      N      000000000000000000                                      01 ARO EXTERNO 650-10                      13201001005         200101   31103010157         200101   13203001001                                                                  19841031        0000000000005083001000000000000000000000000000000000000000477681001000000000000000000000000000000000000000000000000000000000000000000000000000000000000000000000000000000000000000000000000000000000000000000000000050830000000000000000000000000000000000000000000000000000000000000000000000000000000000000000004776810000000000000000000000000000000000000000000000000000000000000000000000000000000000000000000000000000000000000000000000000000000000000000        00000000000000000000000000000000000000000019841031                                                     200101   200101                                                                           000000000000000000  0000000000000000000000000000000000000000000000000000000000000000000000                                                                      
01R70542    000119841031ARO EXTERNO 700-12                      000001000        R70542                                                                          048446                                      N      000000000000000000                                      01 ARO EXTERNO 700-12                      13201001005         200101   31103010157         200101   13203001001                                                                  19841031        0000000000005083001000000000000000000000000000000000000000477681001000000000000000000000000000000000000000000000000000000000000000000000000000000000000000000000000000000000000000000000000000000000000000000000000050830000000000000000000000000000000000000000000000000000000000000000000000000000000000000000004776810000000000000000000000000000000000000000000000000000000000000000000000000000000000000000000000000000000000000000000000000000000000000000        00000000000000000000000000000000000000000019841031                                                     200101   200101                                                                           000000000000000000  0000000000000000000000000000000000000000000000000000000000000000000000                                                                      
01R00009    000119840627CADEIRA GIRATORIA DE TECIDO C/ BRACOS E 000001000        R00009                                                                          002180                                      N      000000000000000000                                      01 CADEIRA GIRATORIA DE TECIDO C/ BRACOS E 13201001003         222301   31103010157         222301   13203001001                                                                  19840627        0000000000005621001000000000000000000000000000000000000000528240001000000000000000000000000000000000000000000000000000000000000000000000000000000000000000000000000000000000000000000000000000000000000000000000000056210000000000000000000000000000000000000000000000000000000000000000000000000000000000000000005282400000000000000000000000000000000000000000000000000000000000000000000000000000000000000000000000000000000000000000000000000000000000000000        00000000000000000000000000000000000000000019840627                                                     222301   222301                                                                           000000000000000000  0000000000000000000000000000000000000000000000000000000000000000000000                                                                      
01R00303    000119840627CADEIRA GIRATORIA DE TECIDO C/ RODIZIOS 000001000        R00303                                                                          002180                                      N      000000000000000000                                      01 CADEIRA GIRATORIA DE TECIDO C/ RODIZIOS 13201001003         211201   31103010157         211201   13203001001                                                                  19840627        0000000000005621001000000000000000000000000000000000000000528240001000000000000000000000000000000000000000000000000000000000000000000000000000000000000000000000000000000000000000000000000000000000000000000000000056210000000000000000000000000000000000000000000000000000000000000000000000000000000000000000005282400000000000000000000000000000000000000000000000000000000000000000000000000000000000000000000000000000000000000000000000000000000000000000        00000000000000000000000000000000000000000019840627                                                     211201   211201                                                                           000000000000000000  0000000000000000000000000000000000000000000000000000000000000000000000                                                                      
01R70500    000119840710ESTANTE EM CEREJEIRA TOPO SEMI ARREDODND000001000        R70500                                                                          002282                                      N      000000000000000000                                      01 ESTANTE EM CEREJEIRA TOPO SEMI ARREDODND13201001003         200101   31103010157         200101   13203001001                                                                  19840710        0000000000006560001000000000000000000000000000000000000000616483001000000000000000000000000000000000000000000000000000000000000000000000000000000000000000000000000000000000000000000000000000000000000000000000000065600000000000000000000000000000000000000000000000000000000000000000000000000000000000000000006164830000000000000000000000000000000000000000000000000000000000000000000000000000000000000000000000000000000000000000000000000000000000000000        00000000000000000000000000000000000000000019840710                                                     200101   200101                                                                           000000000000000000  0000000000000000000000000000000000000000000000000000000000000000000000                                                                      
01R00348    000119840627MESA DE MADEIRA REDONDA REVESTIDA EM FOR000001000        R00348                                                                          002180                                      N      000000000000000000                                      01 MESA DE MADEIRA REDONDA REVESTIDA EM FOR13201001003         211202   31103010157         211202   13203001001                                                                  19840627        0000000000006708001000000000000000000000000000000000000000630392001000000000000000000000000000000000000000000000000000000000000000000000000000000000000000000000000000000000000000000000000000000000000000000000000067080000000000000000000000000000000000000000000000000000000000000000000000000000000000000000006303920000000000000000000000000000000000000000000000000000000000000000000000000000000000000000000000000000000000000000000000000000000000000000        00000000000000000000000000000000000000000019840627                                                     211202   211202                                                                           000000000000000000  0000000000000000000000000000000000000000000000000000000000000000000000                                                                      
01R70502    000119840627MESA EM CREJEIRA TOPO SEMI ARREDONDADO  000001000        R70502                                                                          002180                                      N      000000000000000000                                      01 MESA EM CREJEIRA TOPO SEMI ARREDONDADO  13201001003         200101   31103010157         200101   13203001001                                                                  19840627        0000000000006708001000000000000000000000000000000000000000630392001000000000000000000000000000000000000000000000000000000000000000000000000000000000000000000000000000000000000000000000000000000000000000000000000067080000000000000000000000000000000000000000000000000000000000000000000000000000000000000000006303920000000000000000000000000000000000000000000000000000000000000000000000000000000000000000000000000000000000000000000000000000000000000000        00000000000000000000000000000000000000000019840627                                                     200101   200101                                                                           000000000000000000  0000000000000000000000000000000000000000000000000000000000000000000000                                                                      
01R00245    000119900719REFRIGERADOR DUPLEX                     000001000        R00245                                                                          110830                                      N      000000000000000000                                      01 REFRIGERADOR DUPLEX                     13201001003         222301   31103010157         222301   13203001001                                                                  19900719        0000000000008393001000000000000000000000000000000000000000788742001000000000000000000000000000000000000000000000000000000000000000000000000000000000000000000000000000000000000000000000000000000000000000000000000083930000000000000000000000000000000000000000000000000000000000000000000000000000000000000000007887420000000000000000000000000000000000000000000000000000000000000000000000000000000000000000000000000000000000000000000000000000000000000000        00000000000000000000000000000000000000000019900719                                                     222301   222301                                                                           000000000000000000  0000000000000000000000000000000000000000000000000000000000000000000000                                                                      
01R70534    000119840517RELOGIO DE PAREDE NA COR MARFIM         000001000        R70534                                                                          542774                                      N      000000000000000000                                      01 RELOGIO DE PAREDE NA COR MARFIM         13201001003         200101   31103010157         200101   13203001001                                                                  19840517        0000000000009504001000000000000000000000000000000000000000893149001000000000000000000000000000000000000000000000000000000000000000000000000000000000000000000000000000000000000000000000000000000000000000000000000095040000000000000000000000000000000000000000000000000000000000000000000000000000000000000000008931490000000000000000000000000000000000000000000000000000000000000000000000000000000000000000000000000000000000000000000000000000000000000000        00000000000000000000000000000000000000000019840517                                                     200101   200101                                                                           000000000000000000  0000000000000000000000000000000000000000000000000000000000000000000000                                                                      
01R70570    000119880706MESA MOD. MTB ECON C/PRATELEIRA NA COR B000001000        R70570                                                                          061239                                      N      000000000000000000                                      01 MESA MOD. MTB ECON C/PRATELEIRA NA COR B13201001003         200101   31103010157         200101   13203001001                                                                  19880706        0000000000009542001000000000000000000000000000000000000000896720001000000000000000000000000000000000000000000000000000000000000000000000000000000000000000000000000000000000000000000000000000000000000000000000000095420000000000000000000000000000000000000000000000000000000000000000000000000000000000000000008967200000000000000000000000000000000000000000000000000000000000000000000000000000000000000000000000000000000000000000000000000000000000000000        00000000000000000000000000000000000000000019880706                                                     200101   200101                                                                           000000000000000000  0000000000000000000000000000000000000000000000000000000000000000000000                                                                      
01R70547    000119851110DIVISORIAS REVESTIDAS EM EUCAPLAC NA COR000001000        R70547                                                                          001029                                      N      000000000000000000                                      01 DIVISORIAS REVESTIDAS EM EUCAPLAC NA COR13201001005         200101   31103010157         200101   13203001001                                                                  19851110        0000000000011882001000000000000000000000000000000000000001116624001000000000000000000000000000000000000000000000000000000000000000000000000000000000000000000000000000000000000000000000000000000000000000000000000118820000000000000000000000000000000000000000000000000000000000000000000000000000000000000000011166240000000000000000000000000000000000000000000000000000000000000000000000000000000000000000000000000000000000000000000000000000000000000000        00000000000000000000000000000000000000000019851110                                                     200101   200101                                                                           000000000000000000  0000000000000000000000000000000000000000000000000000000000000000000000                                                                      
01R70527    000119840523DIVISORIASMOD.DIVILUX EUCATEX C/3 PORTAS000001000        R70527                                                                          000034                                      N      000000000000000000                                      01 DIVISORIASMOD.DIVILUX EUCATEX C/3 PORTAS13201001003         200101   31103010157         200101   13203001001                                                                  19840523        0000000000013269001000000000000000000000000000000000000001246969001000000000000000000000000000000000000000000000000000000000000000000000000000000000000000000000000000000000000000000000000000000000000000000000000132690000000000000000000000000000000000000000000000000000000000000000000000000000000000000000012469690000000000000000000000000000000000000000000000000000000000000000000000000000000000000000000000000000000000000000000000000000000000000000        00000000000000000000000000000000000000000019840523                                                     200101   200101                                                                           000000000000000000  0000000000000000000000000000000000000000000000000000000000000000000000                                                                      
01R70598    000119900823EMULADOR DE TELEX TLX-2560              000001000        R70598                                                                          000835                                      N      000000000000000000                                      01 EMULADOR DE TELEX TLX-2560              13201001004         200101   31103010157         200101   13203001001                                                                  19900823        0000000000013931002000000000000000000000000000000000000001309181002000000000000000000000000000000000000000000000000000000000000000000000000000000000000000000000000000000000000000000000000000000000000000000000000139310000000000000000000000000000000000000000000000000000000000000000000000000000000000000000013091810000000000000000000000000000000000000000000000000000000000000000000000000000000000000000000000000000000000000000000000000000000000000000        00000000000000000000000000000000000000000019900823                                                     200101   200101                                                                           000000000000000000  0000000000000000000000000000000000000000000000000000000000000000000000                                                                      
01R00126    000119840308BALCAO DE MADEIRA REVESTIDO EM FORMICA  000001000        R00126                                                                          000578                                      N      000000000000000000                                      01 BALCAO DE MADEIRA REVESTIDO EM FORMICA  13201001003         200101   31103010157         200101   13203001001                                                                  19840308        0000000000016718001000000000000000000000000000000000000001571093001000000000000000000000000000000000000000000000000000000000000000000000000000000000000000000000000000000000000000000000000000000000000000000000000167180000000000000000000000000000000000000000000000000000000000000000000000000000000000000000015710930000000000000000000000000000000000000000000000000000000000000000000000000000000000000000000000000000000000000000000000000000000000000000        00000000000000000000000000000000000000000019840308                                                     200101   200101                                                                           000000000000000000  0000000000000000000000000000000000000000000000000000000000000000000000                                                                      
01R70531    000119840308APARADOR EM L P/REFEITORIO EM COMPENSADO000001000        R70531                                                                          000578                                      N      000000000000000000                                      01 APARADOR EM L P/REFEITORIO EM COMPENSADO13201001003         200101   31103010157         200101   13203001001                                                                  19840308        0000000000016718001000000000000000000000000000000000000001571093001000000000000000000000000000000000000000000000000000000000000000000000000000000000000000000000000000000000000000000000000000000000000000000000000167180000000000000000000000000000000000000000000000000000000000000000000000000000000000000000015710930000000000000000000000000000000000000000000000000000000000000000000000000000000000000000000000000000000000000000000000000000000000000000        00000000000000000000000000000000000000000019840308                                                     200101   200101                                                                           000000000000000000  0000000000000000000000000000000000000000000000000000000000000000000000                                                                      
01R00023    000119900417CADEIRA GIRATORIA DE TECIDO C/ BRACOS E 000001000        R00023                                                                          000229                                      N      000000000000000000                                      01 CADEIRA GIRATORIA DE TECIDO C/ BRACOS E 13201001004         222301   31103010157         222301   13203001001                                                                  19900417        0000000000018113002000000000000000000000000000000000000001702190002000000000000000000000000000000000000000000000000000000000000000000000000000000000000000000000000000000000000000000000000000000000000000000000000181130000000000000000000000000000000000000000000000000000000000000000000000000000000000000000017021900000000000000000000000000000000000000000000000000000000000000000000000000000000000000000000000000000000000000000000000000000000000000000        00000000000000000000000000000000000000000019900417                                                     222301   222301                                                                           000000000000000000  0000000000000000000000000000000000000000000000000000000000000000000000                                                                      
01R00246    000119840628FREEZER                                 000001000        R00246                                                                          999315                                      N      000000000000000000                                      01 FREEZER                                 13201001003         222301   31103010157         222301   13203001001                                                                  19840628        0000000000020411001000000000000000000000000000000000000001918147001000000000000000000000000000000000000000000000000000000000000000000000000000000000000000000000000000000000000000000000000000000000000000000000000204110000000000000000000000000000000000000000000000000000000000000000000000000000000000000000019181470000000000000000000000000000000000000000000000000000000000000000000000000000000000000000000000000000000000000000000000000000000000000000        00000000000000000000000000000000000000000019840628                                                     222301   222301                                                                           000000000000000000  0000000000000000000000000000000000000000000000000000000000000000000000                                                                      
01R70529    000119840518GABINETE EM FORMICA P/BANHEIRO          000001000        R70529                                                                          000047                                      N      000000000000000000                                      01 GABINETE EM FORMICA P/BANHEIRO          13201001003         200101   31103010157         200101   13203001001                                                                  19840518        0000000000023261001000000000000000000000000000000000000002185979001000000000000000000000000000000000000000000000000000000000000000000000000000000000000000000000000000000000000000000000000000000000000000000000000232610000000000000000000000000000000000000000000000000000000000000000000000000000000000000000021859790000000000000000000000000000000000000000000000000000000000000000000000000000000000000000000000000000000000000000000000000000000000000000        00000000000000000000000000000000000000000019840518                                                     200101   200101                                                                           000000000000000000  0000000000000000000000000000000000000000000000000000000000000000000000                                                                      
01R70538    000119840508ESTRUTURA E TRILHO P/CARGA E DESCARGA DE000001000        R70538                                                                          007718                                      N      000000000000000000                                      01 ESTRUTURA E TRILHO P/CARGA E DESCARGA DE13201001005         200101   31103010157         200101   13203001001                                                                  19840508        0000000000025845001000000000000000000000000000000000000002428813001000000000000000000000000000000000000000000000000000000000000000000000000000000000000000000000000000000000000000000000000000000000000000000000000258450000000000000000000000000000000000000000000000000000000000000000000000000000000000000000024288130000000000000000000000000000000000000000000000000000000000000000000000000000000000000000000000000000000000000000000000000000000000000000        00000000000000000000000000000000000000000019840508                                                     200101   200101                                                                           000000000000000000  0000000000000000000000000000000000000000000000000000000000000000000000                                                                      
01R00347    000119891220BEBEDOURO C/ GARRAFAO                   000001000        R00347                                                                          041275                                      N      000000000000000000                                      01 BEBEDOURO C/ GARRAFAO                   13201001003         211202   31103010157         211202   13203001001                                                                  19891220        0000000000025861001000000000000000000000000000000000000002430317001000000000000000000000000000000000000000000000000000000000000000000000000000000000000000000000000000000000000000000000000000000000000000000000000258610000000000000000000000000000000000000000000000000000000000000000000000000000000000000000024303170000000000000000000000000000000000000000000000000000000000000000000000000000000000000000000000000000000000000000000000000000000000000000        00000000000000000000000000000000000000000019891220                                                     211202   211202                                                                           000000000000000000  0000000000000000000000000000000000000000000000000000000000000000000000                                                                      
01R70585    000119900829MOLDE DE ALUMINIO P/RECONSTRUCAO DE PNEU000001000        R70585                                                                          032817                                      N      000000000000000000                                      01 MOLDE DE ALUMINIO P/RECONSTRUCAO DE PNEU13201001005         200101   31103010157         200101   13203001001                                                                  19900829        0000000000026980001000000000000000000000000000000000000002535476001000000000000000000000000000000000000000000000000000000000000000000000000000000000000000000000000000000000000000000000000000000000000000000000000269800000000000000000000000000000000000000000000000000000000000000000000000000000000000000000025354760000000000000000000000000000000000000000000000000000000000000000000000000000000000000000000000000000000000000000000000000000000000000000        00000000000000000000000000000000000000000019900829                                                     200101   200101                                                                           000000000000000000  0000000000000000000000000000000000000000000000000000000000000000000000                                                                      
01R70586    000119900829MOLDE DE ALUMINIO P/RECONSTRUCAO DE PNEU000001000        R70586                                                                          032817                                      N      000000000000000000                                      01 MOLDE DE ALUMINIO P/RECONSTRUCAO DE PNEU13201001005         200101   31103010157         200101   13203001001                                                                  19900829        0000000000026980001000000000000000000000000000000000000002535476001000000000000000000000000000000000000000000000000000000000000000000000000000000000000000000000000000000000000000000000000000000000000000000000000269800000000000000000000000000000000000000000000000000000000000000000000000000000000000000000025354760000000000000000000000000000000000000000000000000000000000000000000000000000000000000000000000000000000000000000000000000000000000000000        00000000000000000000000000000000000000000019900829                                                     200101   200101                                                                           000000000000000000  0000000000000000000000000000000000000000000000000000000000000000000000                                                                      
01R70539    000119841031MOLDE 6.50-10 0.90                      000001000        R70539                                                                          048446                                      N      000000000000000000                                      01 MOLDE 6.50-10 0.90                      13201001005         200101   31103010157         200101   13203001001                                                                  19841031        0000000000029358001000000000000000000000000000000000000002758951001000000000000000000000000000000000000000000000000000000000000000000000000000000000000000000000000000000000000000000000000000000000000000000000000293580000000000000000000000000000000000000000000000000000000000000000000000000000000000000000027589510000000000000000000000000000000000000000000000000000000000000000000000000000000000000000000000000000000000000000000000000000000000000000        00000000000000000000000000000000000000000019841031                                                     200101   200101                                                                           000000000000000000  0000000000000000000000000000000000000000000000000000000000000000000000                                                                      
01R70540    000119841031MOLDE 7.00-12 0.90                      000001000        R70540                                                                          048446                                      N      000000000000000000                                      01 MOLDE 7.00-12 0.90                      13201001005         200101   31103010157         200101   13203001001                                                                  19841031        0000000000029358001000000000000000000000000000000000000002758951001000000000000000000000000000000000000000000000000000000000000000000000000000000000000000000000000000000000000000000000000000000000000000000000000293580000000000000000000000000000000000000000000000000000000000000000000000000000000000000000027589510000000000000000000000000000000000000000000000000000000000000000000000000000000000000000000000000000000000000000000000000000000000000000        00000000000000000000000000000000000000000019841031                                                     200101   200101                                                                           000000000000000000  0000000000000000000000000000000000000000000000000000000000000000000000                                                                      
01R70587    000119900829MOLDE DE ALUMINIO P/RECONSTRUCAO DE PNEU000001000        R70587                                                                          032817                                      N      000000000000000000                                      01 MOLDE DE ALUMINIO P/RECONSTRUCAO DE PNEU13201001005         200101   31103010157         200101   13203001001                                                                  19900829        0000000000029869001000000000000000000000000000000000000002806973001000000000000000000000000000000000000000000000000000000000000000000000000000000000000000000000000000000000000000000000000000000000000000000000000298690000000000000000000000000000000000000000000000000000000000000000000000000000000000000000028069730000000000000000000000000000000000000000000000000000000000000000000000000000000000000000000000000000000000000000000000000000000000000000        00000000000000000000000000000000000000000019900829                                                     200101   200101                                                                           000000000000000000  0000000000000000000000000000000000000000000000000000000000000000000000                                                                      
01R70588    000119900829MOLDE DE ALUMINIO P/RECONSTRUCAO DE PNEU000001000        R70588                                                                          032817                                      N      000000000000000000                                      01 MOLDE DE ALUMINIO P/RECONSTRUCAO DE PNEU13201001005         200101   31103010157         200101   13203001001                                                                  19900829        0000000000029869001000000000000000000000000000000000000002806973001000000000000000000000000000000000000000000000000000000000000000000000000000000000000000000000000000000000000000000000000000000000000000000000000298690000000000000000000000000000000000000000000000000000000000000000000000000000000000000000028069730000000000000000000000000000000000000000000000000000000000000000000000000000000000000000000000000000000000000000000000000000000000000000        00000000000000000000000000000000000000000019900829                                                     200101   200101                                                                           000000000000000000  0000000000000000000000000000000000000000000000000000000000000000000000                                                                      
01R00283    000119850917CABINE DE EXAUSTAO P/ APLICACAO DE COLA 000001000        R00283                                                                          001840                                      N      000000000000000000                                      01 CABINE DE EXAUSTAO P/ APLICACAO DE COLA 13201001005         211202   31103010157         211202   13203001001                                                                  19850917        0000000000030275001000000000000000000000000000000000000002845127001000000000000000000000000000000000000000000000000000000000000000000000000000000000000000000000000000000000000000000000000000000000000000000000000302750000000000000000000000000000000000000000000000000000000000000000000000000000000000000000028451270000000000000000000000000000000000000000000000000000000000000000000000000000000000000000000000000000000000000000000000000000000000000000        00000000000000000000000000000000000000000019850917                                                     211202   211202                                                                           000000000000000000  0000000000000000000000000000000000000000000000000000000000000000000000                                                                      
01R70548    000119850308AQUISICAO DE MAQUINAS                   000001000        R70548                                                                          015839                                      N      000000000000000000                                      01 AQUISICAO DE MAQUINAS                   13201001005         200101   31103010157         200101   13203001001                                                                  19850308        0000000000031075001000000000000000000000000000000000000002920308001000000000000000000000000000000000000000000000000000000000000000000000000000000000000000000000000000000000000000000000000000000000000000000000000310750000000000000000000000000000000000000000000000000000000000000000000000000000000000000000029203080000000000000000000000000000000000000000000000000000000000000000000000000000000000000000000000000000000000000000000000000000000000000000        00000000000000000000000000000000000000000019850308                                                     200101   200101                                                                           000000000000000000  0000000000000000000000000000000000000000000000000000000000000000000000                                                                      
01R70572    000119880707CONVERSOR ESTATICO: 1.5 KVA T.E/T.S - 22000001000        R70572                                                                          005292                                      N      000000000000000000                                      01 CONVERSOR ESTATICO: 1.5 KVA T.E/T.S - 2213201001005         200101   31103010157         200101   13203001001                                                                  19880707        0000000000032897001000000000000000000000000000000000000003091533001000000000000000000000000000000000000000000000000000000000000000000000000000000000000000000000000000000000000000000000000000000000000000000000000328970000000000000000000000000000000000000000000000000000000000000000000000000000000000000000030915330000000000000000000000000000000000000000000000000000000000000000000000000000000000000000000000000000000000000000000000000000000000000000        00000000000000000000000000000000000000000019880707                                                     200101   200101                                                                           000000000000000000  0000000000000000000000000000000000000000000000000000000000000000000000                                                                      
01R00249    000119840315ARMARIO DE MADEIRA REVESTIDO EM FORMICA 000001000        R00249                                                                          000579                                      N      000000000000000000                                      01 ARMARIO DE MADEIRA REVESTIDO EM FORMICA 13201001003         222301   31103010157         222301   13203001001                                                                  19840315        0000000000033442001000000000000000000000000000000000000003142750001000000000000000000000000000000000000000000000000000000000000000000000000000000000000000000000000000000000000000000000000000000000000000000000000334420000000000000000000000000000000000000000000000000000000000000000000000000000000000000000031427500000000000000000000000000000000000000000000000000000000000000000000000000000000000000000000000000000000000000000000000000000000000000000        00000000000000000000000000000000000000000019840315                                                     222301   222301                                                                           000000000000000000  0000000000000000000000000000000000000000000000000000000000000000000000                                                                      
01R00118    000119851105CABINE DE EXAUSTAO P/ COLAGEM           000001000        R00118                                                                          001863                                      N      000000000000000000                                      01 CABINE DE EXAUSTAO P/ COLAGEM           13201001005         200101   31103010157         200101   13203001001                                                                  19851105        0000000000041126001000000000000000000000000000000000000003864862001000000000000000000000000000000000000000000000000000000000000000000000000000000000000000000000000000000000000000000000000000000000000000000000000411260000000000000000000000000000000000000000000000000000000000000000000000000000000000000000038648620000000000000000000000000000000000000000000000000000000000000000000000000000000000000000000000000000000000000000000000000000000000000000        00000000000000000000000000000000000000000019851105                                                     200101   200101                                                                           000000000000000000  0000000000000000000000000000000000000000000000000000000000000000000000                                                                      
01R70535    000119840508PORTA FLEXID CAR                        000001000        R70535                                                                          000934                                      N      000000000000000000                                      01 PORTA FLEXID CAR                        13201001003         200101   31103010157         200101   13203001001                                                                  19840508        0000000000046110001000000000000000000000000000000000000004333239001000000000000000000000000000000000000000000000000000000000000000000000000000000000000000000000000000000000000000000000000000000000000000000000000461100000000000000000000000000000000000000000000000000000000000000000000000000000000000000000043332390000000000000000000000000000000000000000000000000000000000000000000000000000000000000000000000000000000000000000000000000000000000000000        00000000000000000000000000000000000000000019840508                                                     200101   200101                                                                           000000000000000000  0000000000000000000000000000000000000000000000000000000000000000000000                                                                      
01R70590    000119900508PABX MAX 38 C/6 TRONCOS, 16 RAMAIS E C/ 000001000        R70590                                                                          006081                                      N      000000000000000000                                      01 PABX MAX 38 C/6 TRONCOS, 16 RAMAIS E C/ 13201001003         200101   31103010157         200101   13203001001                                                                  19900508        0000000000047882001000000000000000000000000000000000000004499765001000000000000000000000000000000000000000000000000000000000000000000000000000000000000000000000000000000000000000000000000000000000000000000000000478820000000000000000000000000000000000000000000000000000000000000000000000000000000000000000044997650000000000000000000000000000000000000000000000000000000000000000000000000000000000000000000000000000000000000000000000000000000000000000        00000000000000000000000000000000000000000019900508                                                     200101   200101                                                                           000000000000000000  0000000000000000000000000000000000000000000000000000000000000000000000                                                                      
01R00322    000119840518ARMARIO DE MADEIRA C/ 4 PORTA(S) FIXO NA000001000        R00322                                                                          000047                                      N      000000000000000000                                      01 ARMARIO DE MADEIRA C/ 4 PORTA(S) FIXO NA13201001003         222301   31103010157         222301   13203001001                                                                  19840518        0000000000051692001000000000000000000000000000000000000004857814001000000000000000000000000000000000000000000000000000000000000000000000000000000000000000000000000000000000000000000000000000000000000000000000000516920000000000000000000000000000000000000000000000000000000000000000000000000000000000000000048578140000000000000000000000000000000000000000000000000000000000000000000000000000000000000000000000000000000000000000000000000000000000000000        00000000000000000000000000000000000000000019840518                                                     222301   222301                                                                           000000000000000000  0000000000000000000000000000000000000000000000000000000000000000000000                                                                      
01R00277    000119840414AUTOCLAVE P/ VULCANIZACAO DE PNEUS      000001000        R00277                                                                          005386                                      N      000000000000000000                                      01 AUTOCLAVE P/ VULCANIZACAO DE PNEUS      13201001005         211202   31103010157         211202   13203001001                                                                  19840414        0000000000056293001000000000000000000000000000000000000005290198001000000000000000000000000000000000000000000000000000000000000000000000000000000000000000000000000000000000000000000000000000000000000000000000000562930000000000000000000000000000000000000000000000000000000000000000000000000000000000000000052901980000000000000000000000000000000000000000000000000000000000000000000000000000000000000000000000000000000000000000000000000000000000000000        00000000000000000000000000000000000000000019840414                                                     211202   211202                                                                           000000000000000000  0000000000000000000000000000000000000000000000000000000000000000000000                                                                      
01R70554    000119860131CONDICIONADOR AR 220V 60HZ MONOFAS.COMPR000001000        R70554                                                                          007840                                      N      000000000000000000                                      01 CONDICIONADOR AR 220V 60HZ MONOFAS.COMPR13201001003         200101   31103010157         200101   13203001001                                                                  19860131        0000000000056862001000000000000000000000000000000000000005343671001000000000000000000000000000000000000000000000000000000000000000000000000000000000000000000000000000000000000000000000000000000000000000000000000568620000000000000000000000000000000000000000000000000000000000000000000000000000000000000000053436710000000000000000000000000000000000000000000000000000000000000000000000000000000000000000000000000000000000000000000000000000000000000000        00000000000000000000000000000000000000000019860131                                                     200101   200101                                                                           000000000000000000  0000000000000000000000000000000000000000000000000000000000000000000000                                                                      
01R70545    000119840830EXTRUSORA PORTATIL C/CHAMINE (B&J)      000001000        R70545                                                                          006255                                      N      000000000000000000                                      01 EXTRUSORA PORTATIL C/CHAMINE (B&J)      13201001005         200101   31103010157         200101   13203001001                                                                  19840830        0000000000059114001000000000000000000000000000000000000005555305001000000000000000000000000000000000000000000000000000000000000000000000000000000000000000000000000000000000000000000000000000000000000000000000000591140000000000000000000000000000000000000000000000000000000000000000000000000000000000000000055553050000000000000000000000000000000000000000000000000000000000000000000000000000000000000000000000000000000000000000000000000000000000000000        00000000000000000000000000000000000000000019840830                                                     200101   200101                                                                           000000000000000000  0000000000000000000000000000000000000000000000000000000000000000000000                                                                      
01R70575    000119880311MONITOR DE ALTA RESOLUCAO               000001000        R70575                                                                          000865                                      N      000000000000000000                                      01 MONITOR DE ALTA RESOLUCAO               13201001004         200101   31103010157         200101   13203001001                                                                  19880311        0000000000066014002000000000000000000000000000000000000006203740002000000000000000000000000000000000000000000000000000000000000000000000000000000000000000000000000000000000000000000000000000000000000000000000000660140000000000000000000000000000000000000000000000000000000000000000000000000000000000000000062037400000000000000000000000000000000000000000000000000000000000000000000000000000000000000000000000000000000000000000000000000000000000000000        00000000000000000000000000000000000000000019880311                                                     200101   200101                                                                           000000000000000000  0000000000000000000000000000000000000000000000000000000000000000000000                                                                      
01R70544    000119840803BOMBA WKL 32/3,EXEC NORMAL,ROTOR 120MM D000001000        R70544                                                                          195337                                      N      000000000000000000                                      01 BOMBA WKL 32/3,EXEC NORMAL,ROTOR 120MM D13201001005         200101   31103010157         200101   13203001001                                                                  19840803        0000000000069295001000000000000000000000000000000000000006512076001000000000000000000000000000000000000000000000000000000000000000000000000000000000000000000000000000000000000000000000000000000000000000000000000692950000000000000000000000000000000000000000000000000000000000000000000000000000000000000000065120760000000000000000000000000000000000000000000000000000000000000000000000000000000000000000000000000000000000000000000000000000000000000000        00000000000000000000000000000000000000000019840803                                                     200101   200101                                                                           000000000000000000  0000000000000000000000000000000000000000000000000000000000000000000000                                                                      
01R70546    000119840829MAQUINA EXTRUSORA MINI MAG. PNEUMATICA  000001000        R70546                                                                          045550                                      N      000000000000000000                                      01 MAQUINA EXTRUSORA MINI MAG. PNEUMATICA  13201001005         200101   31103010157         200101   13203001001                                                                  19840829        0000000000071079001000000000000000000000000000000000000006679729001000000000000000000000000000000000000000000000000000000000000000000000000000000000000000000000000000000000000000000000000000000000000000000000000710790000000000000000000000000000000000000000000000000000000000000000000000000000000000000000066797290000000000000000000000000000000000000000000000000000000000000000000000000000000000000000000000000000000000000000000000000000000000000000        00000000000000000000000000000000000000000019840829                                                     200101   200101                                                                           000000000000000000  0000000000000000000000000000000000000000000000000000000000000000000000                                                                      
01R70553    000119851119MINI ESTACAO MOD.SIMPLES C/CONJUNTO DE L000001000        R70553                                                                          010906                                      N      000000000000000000                                      01 MINI ESTACAO MOD.SIMPLES C/CONJUNTO DE L13201001005         200101   31103010157         200101   13203001001                                                                  19851119        0000000000081252001000000000000000000000000000000000000007635749001000000000000000000000000000000000000000000000000000000000000000000000000000000000000000000000000000000000000000000000000000000000000000000000000812520000000000000000000000000000000000000000000000000000000000000000000000000000000000000000076357490000000000000000000000000000000000000000000000000000000000000000000000000000000000000000000000000000000000000000000000000000000000000000        00000000000000000000000000000000000000000019851119                                                     200101   200101                                                                           000000000000000000  0000000000000000000000000000000000000000000000000000000000000000000000                                                                      
01R70576    000119880311IMPRESSORA C/ 240 CPS E 132 COL.        000001000        R70576                                                                          000865                                      N      000000000000000000                                      01 IMPRESSORA C/ 240 CPS E 132 COL.        13201001004         200101   31103010157         200101   13203001001                                                                  19880311        0000000000082518002000000000000000000000000000000000000007754722002000000000000000000000000000000000000000000000000000000000000000000000000000000000000000000000000000000000000000000000000000000000000000000000000825180000000000000000000000000000000000000000000000000000000000000000000000000000000000000000077547220000000000000000000000000000000000000000000000000000000000000000000000000000000000000000000000000000000000000000000000000000000000000000        00000000000000000000000000000000000000000019880311                                                     200101   200101                                                                           000000000000000000  0000000000000000000000000000000000000000000000000000000000000000000000                                                                      
01R70579    000119890502MAQUINA DE EXPANSAO I-02 A AVAPOR COMPLE000001000        R70579                                                                          000039                                      N      000000000000000000                                      01 MAQUINA DE EXPANSAO I-02 A AVAPOR COMPLE13201001005         200101   31103010157         200101   13203001001                                                                  19890502        0000000000089949001000000000000000000000000000000000000008453059001000000000000000000000000000000000000000000000000000000000000000000000000000000000000000000000000000000000000000000000000000000000000000000000000899490000000000000000000000000000000000000000000000000000000000000000000000000000000000000000084530590000000000000000000000000000000000000000000000000000000000000000000000000000000000000000000000000000000000000000000000000000000000000000        00000000000000000000000000000000000000000019890502                                                     200101   200101                                                                           000000000000000000  0000000000000000000000000000000000000000000000000000000000000000000000                                                                      
01R00099    000119900102MAQUINA DE ESCREVER MANUAL              000001000        R00099                                                                          002013                                      N      000000000000000000                                      01 MAQUINA DE ESCREVER MANUAL              13201001003         211201   31103010157         211201   13203001001                                                                  19900102        0000000000109096001000000000000000000000000000000000000010252420001000000000000000000000000000000000000000000000000000000000000000000000000000000000000000000000000000000000000000000000000000000000000000000000001090960000000000000000000000000000000000000000000000000000000000000000000000000000000000000000102524200000000000000000000000000000000000000000000000000000000000000000000000000000000000000000000000000000000000000000000000000000000000000000        00000000000000000000000000000000000000000019900102                                                     211201   211201                                                                           000000000000000000  0000000000000000000000000000000000000000000000000000000000000000000000                                                                      
01R70273    000119880728CARRROCERIA DE MADEIRA P/CHASSI VOLKSWAG000001000        R70273                                                                          004534                                      N      000000000000000000                                      01 CARRROCERIA DE MADEIRA P/CHASSI VOLKSWAG13201001007         200101   31103010157         200101   13203001001                                                                  19880728        0000000000129780002000000000000000000000000000000000000012196222002000000000000000000000000000000000000000000000000000000000000000000000000000000000000000000000000000000000000000000000000000000000000000000000001297800000000000000000000000000000000000000000000000000000000000000000000000000000000000000000121962220000000000000000000000000000000000000000000000000000000000000000000000000000000000000000000000000000000000000000000000000000000000000000        00000000000000000000000000000000000000000019880728                                                     200101   200101                                                                           000000000000000000  0000000000000000000000000000000000000000000000000000000000000000000000                                                                      
01R00298    000119850329MAQUINA DE ENVELOPAR ( PNEUMATICA )     000001000        R00298                                                                          008315                                      N      000000000000000000                                      01 MAQUINA DE ENVELOPAR ( PNEUMATICA )     13201001005         211202   31103010157         211202   13203001001                                                                  19850329        0000000000133416001000000000000000000000000000000000000012537919001000000000000000000000000000000000000000000000000000000000000000000000000000000000000000000000000000000000000000000000000000000000000000000000001334160000000000000000000000000000000000000000000000000000000000000000000000000000000000000000125379190000000000000000000000000000000000000000000000000000000000000000000000000000000000000000000000000000000000000000000000000000000000000000        00000000000000000000000000000000000000000019850329                                                     211202   211202                                                                           000000000000000000  0000000000000000000000000000000000000000000000000000000000000000000000                                                                      
01R00345    000119900131CONDICIONADOR DE AR                     000001000        R00345                                                                          044447                                      N      000000000000000000                                      01 CONDICIONADOR DE AR                     13201001003         211202   31103010157         211202   13203001001                                                                  19900131        0000000000137731001000000000000000000000000000000000000012943426001000000000000000000000000000000000000000000000000000000000000000000000000000000000000000000000000000000000000000000000000000000000000000000000001377310000000000000000000000000000000000000000000000000000000000000000000000000000000000000000129434260000000000000000000000000000000000000000000000000000000000000000000000000000000000000000000000000000000000000000000000000000000000000000        00000000000000000000000000000000000000000019900131                                                     211202   211202                                                                           000000000000000000  0000000000000000000000000000000000000000000000000000000000000000000000                                                                      
01R70578    000119890704MATRIZ RECAUCHUTADA MED. 1100 R22 DES. X000001000        R70578                                                                          043214                                      N      000000000000000000                                      01 MATRIZ RECAUCHUTADA MED. 1100 R22 DES. X13201001005         200101   31103010157         200101   13203001001                                                                  19890704        0000000000140483001000000000000000000000000000000000000013202049001000000000000000000000000000000000000000000000000000000000000000000000000000000000000000000000000000000000000000000000000000000000000000000000001404830000000000000000000000000000000000000000000000000000000000000000000000000000000000000000132020490000000000000000000000000000000000000000000000000000000000000000000000000000000000000000000000000000000000000000000000000000000000000000        00000000000000000000000000000000000000000019890704                                                     200101   200101                                                                           000000000000000000  0000000000000000000000000000000000000000000000000000000000000000000000                                                                      
01R70574    000119880311PC-XT C/ 640 KB DE MEMORIA, 2 D/D DISCO 000001000        R70574                                                                          000865                                      N      000000000000000000                                      01 PC-XT C/ 640 KB DE MEMORIA, 2 D/D DISCO 13201001004         200101   31103010157         200101   13203001001                                                                  19880311        0000000000181541002000000000000000000000000000000000000017060521002000000000000000000000000000000000000000000000000000000000000000000000000000000000000000000000000000000000000000000000000000000000000000000000001815410000000000000000000000000000000000000000000000000000000000000000000000000000000000000000170605210000000000000000000000000000000000000000000000000000000000000000000000000000000000000000000000000000000000000000000000000000000000000000        00000000000000000000000000000000000000000019880311                                                     200101   200101                                                                           000000000000000000  0000000000000000000000000000000000000000000000000000000000000000000000                                                                      
01R70557    000119860226MOLDE DE ALUMINIO EM SEIS SETORES P/RECO000001000        R70557                                                                          022530                                      N      000000000000000000                                      01 MOLDE DE ALUMINIO EM SEIS SETORES P/RECO13201001005         200101   31103010157         200101   13203001001                                                                  19860226        0000000000194081001000000000000000000000000000000000000018238981001000000000000000000000000000000000000000000000000000000000000000000000000000000000000000000000000000000000000000000000000000000000000000000000001940810000000000000000000000000000000000000000000000000000000000000000000000000000000000000000182389810000000000000000000000000000000000000000000000000000000000000000000000000000000000000000000000000000000000000000000000000000000000000000        00000000000000000000000000000000000000000019860226                                                     200101   200101                                                                           000000000000000000  0000000000000000000000000000000000000000000000000000000000000000000000                                                                      
01R70558    000119860226MOLDE DE ALUMINIO P/RECONSTRUCAO DE PNEU000001000        R70558                                                                          022530                                      N      000000000000000000                                      01 MOLDE DE ALUMINIO P/RECONSTRUCAO DE PNEU13201001005         200101   31103010157         200101   13203001001                                                                  19860226        0000000000207365001000000000000000000000000000000000000019487360001000000000000000000000000000000000000000000000000000000000000000000000000000000000000000000000000000000000000000000000000000000000000000000000002073650000000000000000000000000000000000000000000000000000000000000000000000000000000000000000194873600000000000000000000000000000000000000000000000000000000000000000000000000000000000000000000000000000000000000000000000000000000000000000        00000000000000000000000000000000000000000019860226                                                     200101   200101                                                                           000000000000000000  0000000000000000000000000000000000000000000000000000000000000000000000                                                                      
01R70559    000119860226MOLDE DE ALUMINIO P/RECONSTRUCAO DE PNEU000001000        R70559                                                                          022530                                      N      000000000000000000                                      01 MOLDE DE ALUMINIO P/RECONSTRUCAO DE PNEU13201001005         200101   31103010157         200101   13203001001                                                                  19860226        0000000000213706001000000000000000000000000000000000000020083263001000000000000000000000000000000000000000000000000000000000000000000000000000000000000000000000000000000000000000000000000000000000000000000000002137060000000000000000000000000000000000000000000000000000000000000000000000000000000000000000200832630000000000000000000000000000000000000000000000000000000000000000000000000000000000000000000000000000000000000000000000000000000000000000        00000000000000000000000000000000000000000019860226                                                     200101   200101                                                                           000000000000000000  0000000000000000000000000000000000000000000000000000000000000000000000                                                                      
