010000070536000119840228SIST.CONTROEL DE POLUICAO C/CICLONE 30,T000001000        070536                                                                          004798                                      N      000000000000000000                                      01 SIST.CONTROEL DE POLUICAO C/CICLONE 30,T13201001005         200101   31103010157         200101   13203001001                                                                  19840228        0000000000298998001000000000000000000000000000000000000028098675001000000000000000000000000000000000000000000000000000000000000000000000000000000000000000000000000000000000000000000000000000000000000000000000002989980000000000000000000000000000000000000000000000000000000000000000000000000000000000000000280986750000000000000000000000000000000000000000000000000000000000000000000000000000000000000000000000000000000000000000000000000000000000000000        00000000000000000000000000000000000000000019840228                                                     200101   200101                                                                           000000000000000000  0000000000000000000000000000000000000000000000000000000000000000000000                                                                      
010000070536000219840228SIST.CONTROEL DE POLUICAO C/CICLONE 30,T000001000        070536                                                                          004798                                      N      000000000000000000                                      01 SIST.CONTROEL DE POLUICAO C/CICLONE 30,T13201001005         200101   31103010157         200101   13203001001                                                                  19840228        0000000000300412001000000000000000000000000000000000000028231557001000000000000000000000000000000000000000000000000000000000000000000000000000000000000000000000000000000000000000000000000000000000000000000000003004120000000000000000000000000000000000000000000000000000000000000000000000000000000000000000282315570000000000000000000000000000000000000000000000000000000000000000000000000000000000000000000000000000000000000000000000000000000000000000        00000000000000000000000000000000000000000019840228                                                     200101   200101                                                                           000000000000000000  0000000000000000000000000000000000000000000000000000000000000000000000                                                                      
010000000126000119840308BALCAO DE MADEIRA REVESTIDO EM FORMICA  000001000        000126                                                                          000578                                      N      000000000000000000                                      01 BALCAO DE MADEIRA REVESTIDO EM FORMICA  13201001003         200101   31103010157         200101   13203001001                                                                  19840308        0000000000016640001000000000000000000000000000000000000001563763001000000000000000000000000000000000000000000000000000000000000000000000000000000000000000000000000000000000000000000000000000000000000000000000000166400000000000000000000000000000000000000000000000000000000000000000000000000000000000000000015637630000000000000000000000000000000000000000000000000000000000000000000000000000000000000000000000000000000000000000000000000000000000000000        00000000000000000000000000000000000000000019840308                                                     200101   200101                                                                           000000000000000000  0000000000000000000000000000000000000000000000000000000000000000000000                                                                      
010000000126000219840308BALCAO DE MADEIRA REVESTIDO EM FORMICA  000001000        000126                                                                          000578                                      N      000000000000000000                                      01 BALCAO DE MADEIRA REVESTIDO EM FORMICA  13201001003         200101   31103010157         200101   13203001001                                                                  19840308        0000000000016718001000000000000000000000000000000000000001571093001000000000000000000000000000000000000000000000000000000000000000000000000000000000000000000000000000000000000000000000000000000000000000000000000167180000000000000000000000000000000000000000000000000000000000000000000000000000000000000000015710930000000000000000000000000000000000000000000000000000000000000000000000000000000000000000000000000000000000000000000000000000000000000000        00000000000000000000000000000000000000000019840308                                                     200101   200101                                                                           000000000000000000  0000000000000000000000000000000000000000000000000000000000000000000000                                                                      
010000070531000119840308APARADOR EM L P/REFEITORIO EM COMPENSADO000001000        070531                                                                          000578                                      N      000000000000000000                                      01 APARADOR EM L P/REFEITORIO EM COMPENSADO13201001003         200101   31103010157         200101   13203001001                                                                  19840308        0000000000016640001000000000000000000000000000000000000001563763001000000000000000000000000000000000000000000000000000000000000000000000000000000000000000000000000000000000000000000000000000000000000000000000000166400000000000000000000000000000000000000000000000000000000000000000000000000000000000000000015637630000000000000000000000000000000000000000000000000000000000000000000000000000000000000000000000000000000000000000000000000000000000000000        00000000000000000000000000000000000000000019840308                                                     200101   200101                                                                           000000000000000000  0000000000000000000000000000000000000000000000000000000000000000000000                                                                      
010000070531000219840308APARADOR EM L P/REFEITORIO EM COMPENSADO000001000        070531                                                                          000578                                      N      000000000000000000                                      01 APARADOR EM L P/REFEITORIO EM COMPENSADO13201001003         200101   31103010157         200101   13203001001                                                                  19840308        0000000000016718001000000000000000000000000000000000000001571093001000000000000000000000000000000000000000000000000000000000000000000000000000000000000000000000000000000000000000000000000000000000000000000000000167180000000000000000000000000000000000000000000000000000000000000000000000000000000000000000015710930000000000000000000000000000000000000000000000000000000000000000000000000000000000000000000000000000000000000000000000000000000000000000        00000000000000000000000000000000000000000019840308                                                     200101   200101                                                                           000000000000000000  0000000000000000000000000000000000000000000000000000000000000000000000                                                                      
010000000249000119840315ARMARIO DE MADEIRA REVESTIDO EM FORMICA 000001000        000249                                                                          000579                                      N      000000000000000000                                      01 ARMARIO DE MADEIRA REVESTIDO EM FORMICA 13201001003         222301   31103010157         222301   13203001001                                                                  19840315        0000000000033285001000000000000000000000000000000000000003127995001000000000000000000000000000000000000000000000000000000000000000000000000000000000000000000000000000000000000000000000000000000000000000000000000332850000000000000000000000000000000000000000000000000000000000000000000000000000000000000000031279950000000000000000000000000000000000000000000000000000000000000000000000000000000000000000000000000000000000000000000000000000000000000000        00000000000000000000000000000000000000000019840315                                                     222301   222301                                                                           000000000000000000  0000000000000000000000000000000000000000000000000000000000000000000000                                                                      
010000000249000219840315ARMARIO DE MADEIRA REVESTIDO EM FORMICA 000001000        000249                                                                          000579                                      N      000000000000000000                                      01 ARMARIO DE MADEIRA REVESTIDO EM FORMICA 13201001003         222301   31103010157         222301   13203001001                                                                  19840315        0000000000033442001000000000000000000000000000000000000003142750001000000000000000000000000000000000000000000000000000000000000000000000000000000000000000000000000000000000000000000000000000000000000000000000000334420000000000000000000000000000000000000000000000000000000000000000000000000000000000000000031427500000000000000000000000000000000000000000000000000000000000000000000000000000000000000000000000000000000000000000000000000000000000000000        00000000000000000000000000000000000000000019840315                                                     222301   222301                                                                           000000000000000000  0000000000000000000000000000000000000000000000000000000000000000000000                                                                      
010000000277000119840414AUTOCLAVE P/ VULCANIZACAO DE PNEUS      000001000        000277                                                                          005386                                      N      000000000000000000                                      01 AUTOCLAVE P/ VULCANIZACAO DE PNEUS      13201001005         211202   31103010157         211202   13203001001                                                                  19840414        0000000000056028001000000000000000000000000000000000000005265295001000000000000000000000000000000000000000000000000000000000000000000000000000000000000000000000000000000000000000000000000000000000000000000000000560280000000000000000000000000000000000000000000000000000000000000000000000000000000000000000052652950000000000000000000000000000000000000000000000000000000000000000000000000000000000000000000000000000000000000000000000000000000000000000        00000000000000000000000000000000000000000019840414                                                     211202   211202                                                                           000000000000000000  0000000000000000000000000000000000000000000000000000000000000000000000                                                                      
010000000277000219840414AUTOCLAVE P/ VULCANIZACAO DE PNEUS      000001000        000277                                                                          005386                                      N      000000000000000000                                      01 AUTOCLAVE P/ VULCANIZACAO DE PNEUS      13201001005         211202   31103010157         211202   13203001001                                                                  19840414        0000000000056293001000000000000000000000000000000000000005290198001000000000000000000000000000000000000000000000000000000000000000000000000000000000000000000000000000000000000000000000000000000000000000000000000562930000000000000000000000000000000000000000000000000000000000000000000000000000000000000000052901980000000000000000000000000000000000000000000000000000000000000000000000000000000000000000000000000000000000000000000000000000000000000000        00000000000000000000000000000000000000000019840414                                                     211202   211202                                                                           000000000000000000  0000000000000000000000000000000000000000000000000000000000000000000000                                                                      
010000070535000119840508PORTA FLEXID CAR                        000001000        070535                                                                          000934                                      N      000000000000000000                                      01 PORTA FLEXID CAR                        13201001003         200101   31103010157         200101   13203001001                                                                  19840508        0000000000045893001000000000000000000000000000000000000004312847001000000000000000000000000000000000000000000000000000000000000000000000000000000000000000000000000000000000000000000000000000000000000000000000000458930000000000000000000000000000000000000000000000000000000000000000000000000000000000000000043128470000000000000000000000000000000000000000000000000000000000000000000000000000000000000000000000000000000000000000000000000000000000000000        00000000000000000000000000000000000000000019840508                                                     200101   200101                                                                           000000000000000000  0000000000000000000000000000000000000000000000000000000000000000000000                                                                      
010000070535000219840508PORTA FLEXID CAR                        000001000        070535                                                                          000934                                      N      000000000000000000                                      01 PORTA FLEXID CAR                        13201001003         200101   31103010157         200101   13203001001                                                                  19840508        0000000000046110001000000000000000000000000000000000000004333239001000000000000000000000000000000000000000000000000000000000000000000000000000000000000000000000000000000000000000000000000000000000000000000000000461100000000000000000000000000000000000000000000000000000000000000000000000000000000000000000043332390000000000000000000000000000000000000000000000000000000000000000000000000000000000000000000000000000000000000000000000000000000000000000        00000000000000000000000000000000000000000019840508                                                     200101   200101                                                                           000000000000000000  0000000000000000000000000000000000000000000000000000000000000000000000                                                                      
010000070538000119840508ESTRUTURA E TRILHO P/CARGA E DESCARGA DE000001000        070538                                                                          007718                                      N      000000000000000000                                      01 ESTRUTURA E TRILHO P/CARGA E DESCARGA DE13201001005         200101   31103010157         200101   13203001001                                                                  19840508        0000000000025724001000000000000000000000000000000000000002417442001000000000000000000000000000000000000000000000000000000000000000000000000000000000000000000000000000000000000000000000000000000000000000000000000257240000000000000000000000000000000000000000000000000000000000000000000000000000000000000000024174420000000000000000000000000000000000000000000000000000000000000000000000000000000000000000000000000000000000000000000000000000000000000000        00000000000000000000000000000000000000000019840508                                                     200101   200101                                                                           000000000000000000  0000000000000000000000000000000000000000000000000000000000000000000000                                                                      
010000070538000219840508ESTRUTURA E TRILHO P/CARGA E DESCARGA DE000001000        070538                                                                          007718                                      N      000000000000000000                                      01 ESTRUTURA E TRILHO P/CARGA E DESCARGA DE13201001005         200101   31103010157         200101   13203001001                                                                  19840508        0000000000025845001000000000000000000000000000000000000002428813001000000000000000000000000000000000000000000000000000000000000000000000000000000000000000000000000000000000000000000000000000000000000000000000000258450000000000000000000000000000000000000000000000000000000000000000000000000000000000000000024288130000000000000000000000000000000000000000000000000000000000000000000000000000000000000000000000000000000000000000000000000000000000000000        00000000000000000000000000000000000000000019840508                                                     200101   200101                                                                           000000000000000000  0000000000000000000000000000000000000000000000000000000000000000000000                                                                      
010000070534000119840517RELOGIO DE PAREDE NA COR MARFIM         000001000        070534                                                                          542774                                      N      000000000000000000                                      01 RELOGIO DE PAREDE NA COR MARFIM         13201001003         200101   31103010157         200101   13203001001                                                                  19840517        0000000000009460001000000000000000000000000000000000000000889014001000000000000000000000000000000000000000000000000000000000000000000000000000000000000000000000000000000000000000000000000000000000000000000000000094600000000000000000000000000000000000000000000000000000000000000000000000000000000000000000008890140000000000000000000000000000000000000000000000000000000000000000000000000000000000000000000000000000000000000000000000000000000000000000        00000000000000000000000000000000000000000019840517                                                     200101   200101                                                                           000000000000000000  0000000000000000000000000000000000000000000000000000000000000000000000                                                                      
010000070534000219840517RELOGIO DE PAREDE NA COR MARFIM         000001000        070534                                                                          542774                                      N      000000000000000000                                      01 RELOGIO DE PAREDE NA COR MARFIM         13201001003         200101   31103010157         200101   13203001001                                                                  19840517        0000000000009504001000000000000000000000000000000000000000893149001000000000000000000000000000000000000000000000000000000000000000000000000000000000000000000000000000000000000000000000000000000000000000000000000095040000000000000000000000000000000000000000000000000000000000000000000000000000000000000000008931490000000000000000000000000000000000000000000000000000000000000000000000000000000000000000000000000000000000000000000000000000000000000000        00000000000000000000000000000000000000000019840517                                                     200101   200101                                                                           000000000000000000  0000000000000000000000000000000000000000000000000000000000000000000000                                                                      
010000000322000119840518ARMARIO DE MADEIRA C/ 4 PORTA(S) FIXO NA000001000        000322                                                                          000047                                      N      000000000000000000                                      01 ARMARIO DE MADEIRA C/ 4 PORTA(S) FIXO NA13201001003         222301   31103010157         222301   13203001001                                                                  19840518        0000000000051449001000000000000000000000000000000000000004834978001000000000000000000000000000000000000000000000000000000000000000000000000000000000000000000000000000000000000000000000000000000000000000000000000514490000000000000000000000000000000000000000000000000000000000000000000000000000000000000000048349780000000000000000000000000000000000000000000000000000000000000000000000000000000000000000000000000000000000000000000000000000000000000000        00000000000000000000000000000000000000000019840518                                                     222301   222301                                                                           000000000000000000  0000000000000000000000000000000000000000000000000000000000000000000000                                                                      
010000000322000219840518ARMARIO DE MADEIRA C/ 4 PORTA(S) FIXO NA000001000        000322                                                                          000047                                      N      000000000000000000                                      01 ARMARIO DE MADEIRA C/ 4 PORTA(S) FIXO NA13201001003         222301   31103010157         222301   13203001001                                                                  19840518        0000000000051692001000000000000000000000000000000000000004857814001000000000000000000000000000000000000000000000000000000000000000000000000000000000000000000000000000000000000000000000000000000000000000000000000516920000000000000000000000000000000000000000000000000000000000000000000000000000000000000000048578140000000000000000000000000000000000000000000000000000000000000000000000000000000000000000000000000000000000000000000000000000000000000000        00000000000000000000000000000000000000000019840518                                                     222301   222301                                                                           000000000000000000  0000000000000000000000000000000000000000000000000000000000000000000000                                                                      
010000070529000119840518GABINETE EM FORMICA P/BANHEIRO          000001000        070529                                                                          000047                                      N      000000000000000000                                      01 GABINETE EM FORMICA P/BANHEIRO          13201001003         200101   31103010157         200101   13203001001                                                                  19840518        0000000000023152001000000000000000000000000000000000000002175735001000000000000000000000000000000000000000000000000000000000000000000000000000000000000000000000000000000000000000000000000000000000000000000000000231520000000000000000000000000000000000000000000000000000000000000000000000000000000000000000021757350000000000000000000000000000000000000000000000000000000000000000000000000000000000000000000000000000000000000000000000000000000000000000        00000000000000000000000000000000000000000019840518                                                     200101   200101                                                                           000000000000000000  0000000000000000000000000000000000000000000000000000000000000000000000                                                                      
010000070529000219840518GABINETE EM FORMICA P/BANHEIRO          000001000        070529                                                                          000047                                      N      000000000000000000                                      01 GABINETE EM FORMICA P/BANHEIRO          13201001003         200101   31103010157         200101   13203001001                                                                  19840518        0000000000023261001000000000000000000000000000000000000002185979001000000000000000000000000000000000000000000000000000000000000000000000000000000000000000000000000000000000000000000000000000000000000000000000000232610000000000000000000000000000000000000000000000000000000000000000000000000000000000000000021859790000000000000000000000000000000000000000000000000000000000000000000000000000000000000000000000000000000000000000000000000000000000000000        00000000000000000000000000000000000000000019840518                                                     200101   200101                                                                           000000000000000000  0000000000000000000000000000000000000000000000000000000000000000000000                                                                      
010000070527000119840523DIVISORIASMOD.DIVILUX EUCATEX C/3 PORTAS000001000        070527                                                                          000034                                      N      000000000000000000                                      01 DIVISORIASMOD.DIVILUX EUCATEX C/3 PORTAS13201001003         200101   31103010157         200101   13203001001                                                                  19840523        0000000000013207001000000000000000000000000000000000000001241143001000000000000000000000000000000000000000000000000000000000000000000000000000000000000000000000000000000000000000000000000000000000000000000000000132070000000000000000000000000000000000000000000000000000000000000000000000000000000000000000012411430000000000000000000000000000000000000000000000000000000000000000000000000000000000000000000000000000000000000000000000000000000000000000        00000000000000000000000000000000000000000019840523                                                     200101   200101                                                                           000000000000000000  0000000000000000000000000000000000000000000000000000000000000000000000                                                                      
010000070527000219840523DIVISORIASMOD.DIVILUX EUCATEX C/3 PORTAS000001000        070527                                                                          000034                                      N      000000000000000000                                      01 DIVISORIASMOD.DIVILUX EUCATEX C/3 PORTAS13201001003         200101   31103010157         200101   13203001001                                                                  19840523        0000000000013269001000000000000000000000000000000000000001246969001000000000000000000000000000000000000000000000000000000000000000000000000000000000000000000000000000000000000000000000000000000000000000000000000132690000000000000000000000000000000000000000000000000000000000000000000000000000000000000000012469690000000000000000000000000000000000000000000000000000000000000000000000000000000000000000000000000000000000000000000000000000000000000000        00000000000000000000000000000000000000000019840523                                                     200101   200101                                                                           000000000000000000  0000000000000000000000000000000000000000000000000000000000000000000000                                                                      
010000000009000119840627CADEIRA GIRATORIA DE TECIDO C/ BRACOS E 000001000        000009                                                                          002180                                      N      000000000000000000                                      01 CADEIRA GIRATORIA DE TECIDO C/ BRACOS E 13201001003         222301   31103010157         222301   13203001001                                                                  19840627        0000000000005595001000000000000000000000000000000000000000525796001000000000000000000000000000000000000000000000000000000000000000000000000000000000000000000000000000000000000000000000000000000000000000000000000055950000000000000000000000000000000000000000000000000000000000000000000000000000000000000000005257960000000000000000000000000000000000000000000000000000000000000000000000000000000000000000000000000000000000000000000000000000000000000000        00000000000000000000000000000000000000000019840627                                                     222301   222301                                                                           000000000000000000  0000000000000000000000000000000000000000000000000000000000000000000000                                                                      
010000000009000219840627CADEIRA GIRATORIA DE TECIDO C/ BRACOS E 000001000        000009                                                                          002180                                      N      000000000000000000                                      01 CADEIRA GIRATORIA DE TECIDO C/ BRACOS E 13201001003         222301   31103010157         222301   13203001001                                                                  19840627        0000000000005621001000000000000000000000000000000000000000528240001000000000000000000000000000000000000000000000000000000000000000000000000000000000000000000000000000000000000000000000000000000000000000000000000056210000000000000000000000000000000000000000000000000000000000000000000000000000000000000000005282400000000000000000000000000000000000000000000000000000000000000000000000000000000000000000000000000000000000000000000000000000000000000000        00000000000000000000000000000000000000000019840627                                                     222301   222301                                                                           000000000000000000  0000000000000000000000000000000000000000000000000000000000000000000000                                                                      
010000000010000119840627CADEIRA FIXA DE TECIDO C/ BRACOS        000001000        000010                                                                          002180                                      N      000000000000000000                                      01 CADEIRA FIXA DE TECIDO C/ BRACOS        13201001003         222301   31103010157         222301   13203001001                                                                  19840627        0000000000001124001000000000000000000000000000000000000000105629001000000000000000000000000000000000000000000000000000000000000000000000000000000000000000000000000000000000000000000000000000000000000000000000000011240000000000000000000000000000000000000000000000000000000000000000000000000000000000000000001056290000000000000000000000000000000000000000000000000000000000000000000000000000000000000000000000000000000000000000000000000000000000000000        00000000000000000000000000000000000000000019840627                                                     222301   222301                                                                           000000000000000000  0000000000000000000000000000000000000000000000000000000000000000000000                                                                      
010000000010000219840627CADEIRA FIXA DE TECIDO C/ BRACOS        000001000        000010                                                                          002180                                      N      000000000000000000                                      01 CADEIRA FIXA DE TECIDO C/ BRACOS        13201001003         222301   31103010157         222301   13203001001                                                                  19840627        0000000000001129001000000000000000000000000000000000000000106099001000000000000000000000000000000000000000000000000000000000000000000000000000000000000000000000000000000000000000000000000000000000000000000000000011290000000000000000000000000000000000000000000000000000000000000000000000000000000000000000001060990000000000000000000000000000000000000000000000000000000000000000000000000000000000000000000000000000000000000000000000000000000000000000        00000000000000000000000000000000000000000019840627                                                     222301   222301                                                                           000000000000000000  0000000000000000000000000000000000000000000000000000000000000000000000                                                                      
010000000011000119840627CADEIRA FIXA DE TECIDO C/ BRACOS        000001000        000011                                                                          002180                                      N      000000000000000000                                      01 CADEIRA FIXA DE TECIDO C/ BRACOS        13201001003         222301   31103010157         222301   13203001001                                                                  19840627        0000000000001124001000000000000000000000000000000000000000105629001000000000000000000000000000000000000000000000000000000000000000000000000000000000000000000000000000000000000000000000000000000000000000000000000011240000000000000000000000000000000000000000000000000000000000000000000000000000000000000000001056290000000000000000000000000000000000000000000000000000000000000000000000000000000000000000000000000000000000000000000000000000000000000000        00000000000000000000000000000000000000000019840627                                                     222301   222301                                                                           000000000000000000  0000000000000000000000000000000000000000000000000000000000000000000000                                                                      
010000000011000219840627CADEIRA FIXA DE TECIDO C/ BRACOS        000001000        000011                                                                          002180                                      N      000000000000000000                                      01 CADEIRA FIXA DE TECIDO C/ BRACOS        13201001003         222301   31103010157         222301   13203001001                                                                  19840627        0000000000001129001000000000000000000000000000000000000000106099001000000000000000000000000000000000000000000000000000000000000000000000000000000000000000000000000000000000000000000000000000000000000000000000000011290000000000000000000000000000000000000000000000000000000000000000000000000000000000000000001060990000000000000000000000000000000000000000000000000000000000000000000000000000000000000000000000000000000000000000000000000000000000000000        00000000000000000000000000000000000000000019840627                                                     222301   222301                                                                           000000000000000000  0000000000000000000000000000000000000000000000000000000000000000000000                                                                      
010000000012000119840627CADEIRA FIXA DE TECIDO C/ BRACOS        000001000        000012                                                                          002180                                      N      000000000000000000                                      01 CADEIRA FIXA DE TECIDO C/ BRACOS        13201001003         222301   31103010157         222301   13203001001                                                                  19840627        0000000000001124001000000000000000000000000000000000000000105629001000000000000000000000000000000000000000000000000000000000000000000000000000000000000000000000000000000000000000000000000000000000000000000000000011240000000000000000000000000000000000000000000000000000000000000000000000000000000000000000001056290000000000000000000000000000000000000000000000000000000000000000000000000000000000000000000000000000000000000000000000000000000000000000        00000000000000000000000000000000000000000019840627                                                     222301   222301                                                                           000000000000000000  0000000000000000000000000000000000000000000000000000000000000000000000                                                                      
010000000012000219840627CADEIRA FIXA DE TECIDO C/ BRACOS        000001000        000012                                                                          002180                                      N      000000000000000000                                      01 CADEIRA FIXA DE TECIDO C/ BRACOS        13201001003         222301   31103010157         222301   13203001001                                                                  19840627        0000000000001129001000000000000000000000000000000000000000106099001000000000000000000000000000000000000000000000000000000000000000000000000000000000000000000000000000000000000000000000000000000000000000000000000011290000000000000000000000000000000000000000000000000000000000000000000000000000000000000000001060990000000000000000000000000000000000000000000000000000000000000000000000000000000000000000000000000000000000000000000000000000000000000000        00000000000000000000000000000000000000000019840627                                                     222301   222301                                                                           000000000000000000  0000000000000000000000000000000000000000000000000000000000000000000000                                                                      
010000000013000119840627CADEIRA FIXA DE TECIDO C/ BRACOS        000001000        000013                                                                          002180                                      N      000000000000000000                                      01 CADEIRA FIXA DE TECIDO C/ BRACOS        13201001003         222301   31103010157         222301   13203001001                                                                  19840627        0000000000001124001000000000000000000000000000000000000000105629001000000000000000000000000000000000000000000000000000000000000000000000000000000000000000000000000000000000000000000000000000000000000000000000000011240000000000000000000000000000000000000000000000000000000000000000000000000000000000000000001056290000000000000000000000000000000000000000000000000000000000000000000000000000000000000000000000000000000000000000000000000000000000000000        00000000000000000000000000000000000000000019840627                                                     222301   222301                                                                           000000000000000000  0000000000000000000000000000000000000000000000000000000000000000000000                                                                      
010000000013000219840627CADEIRA FIXA DE TECIDO C/ BRACOS        000001000        000013                                                                          002180                                      N      000000000000000000                                      01 CADEIRA FIXA DE TECIDO C/ BRACOS        13201001003         222301   31103010157         222301   13203001001                                                                  19840627        0000000000001129001000000000000000000000000000000000000000106099001000000000000000000000000000000000000000000000000000000000000000000000000000000000000000000000000000000000000000000000000000000000000000000000000011290000000000000000000000000000000000000000000000000000000000000000000000000000000000000000001060990000000000000000000000000000000000000000000000000000000000000000000000000000000000000000000000000000000000000000000000000000000000000000        00000000000000000000000000000000000000000019840627                                                     222301   222301                                                                           000000000000000000  0000000000000000000000000000000000000000000000000000000000000000000000                                                                      
010000000014000119840627CADEIRA FIXA DE TECIDO C/ BRACOS        000001000        000014                                                                          002180                                      N      000000000000000000                                      01 CADEIRA FIXA DE TECIDO C/ BRACOS        13201001003         222301   31103010157         222301   13203001001                                                                  19840627        0000000000001124001000000000000000000000000000000000000000105629001000000000000000000000000000000000000000000000000000000000000000000000000000000000000000000000000000000000000000000000000000000000000000000000000011240000000000000000000000000000000000000000000000000000000000000000000000000000000000000000001056290000000000000000000000000000000000000000000000000000000000000000000000000000000000000000000000000000000000000000000000000000000000000000        00000000000000000000000000000000000000000019840627                                                     222301   222301                                                                           000000000000000000  0000000000000000000000000000000000000000000000000000000000000000000000                                                                      
010000000014000219840627CADEIRA FIXA DE TECIDO C/ BRACOS        000001000        000014                                                                          002180                                      N      000000000000000000                                      01 CADEIRA FIXA DE TECIDO C/ BRACOS        13201001003         222301   31103010157         222301   13203001001                                                                  19840627        0000000000001129001000000000000000000000000000000000000000106099001000000000000000000000000000000000000000000000000000000000000000000000000000000000000000000000000000000000000000000000000000000000000000000000000011290000000000000000000000000000000000000000000000000000000000000000000000000000000000000000001060990000000000000000000000000000000000000000000000000000000000000000000000000000000000000000000000000000000000000000000000000000000000000000        00000000000000000000000000000000000000000019840627                                                     222301   222301                                                                           000000000000000000  0000000000000000000000000000000000000000000000000000000000000000000000                                                                      
010000000015000119840627CADEIRA FIXA DE TECIDO C/ BRACOS        000001000        000015                                                                          002180                                      N      000000000000000000                                      01 CADEIRA FIXA DE TECIDO C/ BRACOS        13201001003         222301   31103010157         222301   13203001001                                                                  19840627        0000000000001124001000000000000000000000000000000000000000105629001000000000000000000000000000000000000000000000000000000000000000000000000000000000000000000000000000000000000000000000000000000000000000000000000011240000000000000000000000000000000000000000000000000000000000000000000000000000000000000000001056290000000000000000000000000000000000000000000000000000000000000000000000000000000000000000000000000000000000000000000000000000000000000000        00000000000000000000000000000000000000000019840627                                                     222301   222301                                                                           000000000000000000  0000000000000000000000000000000000000000000000000000000000000000000000                                                                      
010000000015000219840627CADEIRA FIXA DE TECIDO C/ BRACOS        000001000        000015                                                                          002180                                      N      000000000000000000                                      01 CADEIRA FIXA DE TECIDO C/ BRACOS        13201001003         222301   31103010157         222301   13203001001                                                                  19840627        0000000000001129001000000000000000000000000000000000000000106099001000000000000000000000000000000000000000000000000000000000000000000000000000000000000000000000000000000000000000000000000000000000000000000000000011290000000000000000000000000000000000000000000000000000000000000000000000000000000000000000001060990000000000000000000000000000000000000000000000000000000000000000000000000000000000000000000000000000000000000000000000000000000000000000        00000000000000000000000000000000000000000019840627                                                     222301   222301                                                                           000000000000000000  0000000000000000000000000000000000000000000000000000000000000000000000                                                                      
010000000016000119840627CADEIRA FIXA DE TECIDO C/ BRACOS        000001000        000016                                                                          002180                                      N      000000000000000000                                      01 CADEIRA FIXA DE TECIDO C/ BRACOS        13201001003         222301   31103010157         222301   13203001001                                                                  19840627        0000000000002238001000000000000000000000000000000000000000210319001000000000000000000000000000000000000000000000000000000000000000000000000000000000000000000000000000000000000000000000000000000000000000000000000022380000000000000000000000000000000000000000000000000000000000000000000000000000000000000000002103190000000000000000000000000000000000000000000000000000000000000000000000000000000000000000000000000000000000000000000000000000000000000000        00000000000000000000000000000000000000000019840627                                                     222301   222301                                                                           000000000000000000  0000000000000000000000000000000000000000000000000000000000000000000000                                                                      
010000000016000219840627CADEIRA FIXA DE TECIDO C/ BRACOS        000001000        000016                                                                          002180                                      N      000000000000000000                                      01 CADEIRA FIXA DE TECIDO C/ BRACOS        13201001003         222301   31103010157         222301   13203001001                                                                  19840627        0000000000002248001000000000000000000000000000000000000000211258001000000000000000000000000000000000000000000000000000000000000000000000000000000000000000000000000000000000000000000000000000000000000000000000000022480000000000000000000000000000000000000000000000000000000000000000000000000000000000000000002112580000000000000000000000000000000000000000000000000000000000000000000000000000000000000000000000000000000000000000000000000000000000000000        00000000000000000000000000000000000000000019840627                                                     222301   222301                                                                           000000000000000000  0000000000000000000000000000000000000000000000000000000000000000000000                                                                      
010000000017000119840627CADEIRA FIXA DE TECIDO C/ BRACOS        000001000        000017                                                                          002180                                      N      000000000000000000                                      01 CADEIRA FIXA DE TECIDO C/ BRACOS        13201001003         222301   31103010157         222301   13203001001                                                                  19840627        0000000000002238001000000000000000000000000000000000000000210319001000000000000000000000000000000000000000000000000000000000000000000000000000000000000000000000000000000000000000000000000000000000000000000000000022380000000000000000000000000000000000000000000000000000000000000000000000000000000000000000002103190000000000000000000000000000000000000000000000000000000000000000000000000000000000000000000000000000000000000000000000000000000000000000        00000000000000000000000000000000000000000019840627                                                     222301   222301                                                                           000000000000000000  0000000000000000000000000000000000000000000000000000000000000000000000                                                                      
010000000017000219840627CADEIRA FIXA DE TECIDO C/ BRACOS        000001000        000017                                                                          002180                                      N      000000000000000000                                      01 CADEIRA FIXA DE TECIDO C/ BRACOS        13201001003         222301   31103010157         222301   13203001001                                                                  19840627        0000000000002248001000000000000000000000000000000000000000211258001000000000000000000000000000000000000000000000000000000000000000000000000000000000000000000000000000000000000000000000000000000000000000000000000022480000000000000000000000000000000000000000000000000000000000000000000000000000000000000000002112580000000000000000000000000000000000000000000000000000000000000000000000000000000000000000000000000000000000000000000000000000000000000000        00000000000000000000000000000000000000000019840627                                                     222301   222301                                                                           000000000000000000  0000000000000000000000000000000000000000000000000000000000000000000000                                                                      
010000000018000119840627CADEIRA FIXA DE TECIDO C/ BRACOS        000001000        000018                                                                          002180                                      N      000000000000000000                                      01 CADEIRA FIXA DE TECIDO C/ BRACOS        13201001003         222301   31103010157         222301   13203001001                                                                  19840627        0000000000002238001000000000000000000000000000000000000000210319001000000000000000000000000000000000000000000000000000000000000000000000000000000000000000000000000000000000000000000000000000000000000000000000000022380000000000000000000000000000000000000000000000000000000000000000000000000000000000000000002103190000000000000000000000000000000000000000000000000000000000000000000000000000000000000000000000000000000000000000000000000000000000000000        00000000000000000000000000000000000000000019840627                                                     222301   222301                                                                           000000000000000000  0000000000000000000000000000000000000000000000000000000000000000000000                                                                      
010000000018000219840627CADEIRA FIXA DE TECIDO C/ BRACOS        000001000        000018                                                                          002180                                      N      000000000000000000                                      01 CADEIRA FIXA DE TECIDO C/ BRACOS        13201001003         222301   31103010157         222301   13203001001                                                                  19840627        0000000000002248001000000000000000000000000000000000000000211258001000000000000000000000000000000000000000000000000000000000000000000000000000000000000000000000000000000000000000000000000000000000000000000000000022480000000000000000000000000000000000000000000000000000000000000000000000000000000000000000002112580000000000000000000000000000000000000000000000000000000000000000000000000000000000000000000000000000000000000000000000000000000000000000        00000000000000000000000000000000000000000019840627                                                     222301   222301                                                                           000000000000000000  0000000000000000000000000000000000000000000000000000000000000000000000                                                                      
010000000019000119840627CADEIRA FIXA DE TECIDO C/ BRACOS        000001000        000019                                                                          002180                                      N      000000000000000000                                      01 CADEIRA FIXA DE TECIDO C/ BRACOS        13201001003         222301   31103010157         222301   13203001001                                                                  19840627        0000000000002238001000000000000000000000000000000000000000210319001000000000000000000000000000000000000000000000000000000000000000000000000000000000000000000000000000000000000000000000000000000000000000000000000022380000000000000000000000000000000000000000000000000000000000000000000000000000000000000000002103190000000000000000000000000000000000000000000000000000000000000000000000000000000000000000000000000000000000000000000000000000000000000000        00000000000000000000000000000000000000000019840627                                                     222301   222301                                                                           000000000000000000  0000000000000000000000000000000000000000000000000000000000000000000000                                                                      
010000000019000219840627CADEIRA FIXA DE TECIDO C/ BRACOS        000001000        000019                                                                          002180                                      N      000000000000000000                                      01 CADEIRA FIXA DE TECIDO C/ BRACOS        13201001003         222301   31103010157         222301   13203001001                                                                  19840627        0000000000002248001000000000000000000000000000000000000000211258001000000000000000000000000000000000000000000000000000000000000000000000000000000000000000000000000000000000000000000000000000000000000000000000000022480000000000000000000000000000000000000000000000000000000000000000000000000000000000000000002112580000000000000000000000000000000000000000000000000000000000000000000000000000000000000000000000000000000000000000000000000000000000000000        00000000000000000000000000000000000000000019840627                                                     222301   222301                                                                           000000000000000000  0000000000000000000000000000000000000000000000000000000000000000000000                                                                      
010000000020000119840627CADEIRA FIXA DE TECIDO C/ BRACOS        000001000        000020                                                                          002180                                      N      000000000000000000                                      01 CADEIRA FIXA DE TECIDO C/ BRACOS        13201001003         222301   31103010157         222301   13203001001                                                                  19840627        0000000000002238001000000000000000000000000000000000000000210319001000000000000000000000000000000000000000000000000000000000000000000000000000000000000000000000000000000000000000000000000000000000000000000000000022380000000000000000000000000000000000000000000000000000000000000000000000000000000000000000002103190000000000000000000000000000000000000000000000000000000000000000000000000000000000000000000000000000000000000000000000000000000000000000        00000000000000000000000000000000000000000019840627                                                     222301   222301                                                                           000000000000000000  0000000000000000000000000000000000000000000000000000000000000000000000                                                                      
010000000020000219840627CADEIRA FIXA DE TECIDO C/ BRACOS        000001000        000020                                                                          002180                                      N      000000000000000000                                      01 CADEIRA FIXA DE TECIDO C/ BRACOS        13201001003         222301   31103010157         222301   13203001001                                                                  19840627        0000000000002248001000000000000000000000000000000000000000211258001000000000000000000000000000000000000000000000000000000000000000000000000000000000000000000000000000000000000000000000000000000000000000000000000022480000000000000000000000000000000000000000000000000000000000000000000000000000000000000000002112580000000000000000000000000000000000000000000000000000000000000000000000000000000000000000000000000000000000000000000000000000000000000000        00000000000000000000000000000000000000000019840627                                                     222301   222301                                                                           000000000000000000  0000000000000000000000000000000000000000000000000000000000000000000000                                                                      
010000000021000119840627CADEIRA FIXA DE TECIDO C/ BRACOS        000001000        000021                                                                          002180                                      N      000000000000000000                                      01 CADEIRA FIXA DE TECIDO C/ BRACOS        13201001003         222301   31103010157         222301   13203001001                                                                  19840627        0000000000002238001000000000000000000000000000000000000000210319001000000000000000000000000000000000000000000000000000000000000000000000000000000000000000000000000000000000000000000000000000000000000000000000000022380000000000000000000000000000000000000000000000000000000000000000000000000000000000000000002103190000000000000000000000000000000000000000000000000000000000000000000000000000000000000000000000000000000000000000000000000000000000000000        00000000000000000000000000000000000000000019840627                                                     222301   222301                                                                           000000000000000000  0000000000000000000000000000000000000000000000000000000000000000000000                                                                      
010000000021000219840627CADEIRA FIXA DE TECIDO C/ BRACOS        000001000        000021                                                                          002180                                      N      000000000000000000                                      01 CADEIRA FIXA DE TECIDO C/ BRACOS        13201001003         222301   31103010157         222301   13203001001                                                                  19840627        0000000000002248001000000000000000000000000000000000000000211258001000000000000000000000000000000000000000000000000000000000000000000000000000000000000000000000000000000000000000000000000000000000000000000000000022480000000000000000000000000000000000000000000000000000000000000000000000000000000000000000002112580000000000000000000000000000000000000000000000000000000000000000000000000000000000000000000000000000000000000000000000000000000000000000        00000000000000000000000000000000000000000019840627                                                     222301   222301                                                                           000000000000000000  0000000000000000000000000000000000000000000000000000000000000000000000                                                                      
010000000059000119840627CADEIRA GIRATORIA DE COURVIM C/ RODIZIOS000001000        000059                                                                          002180                                      N      000000000000000000                                      01 CADEIRA GIRATORIA DE COURVIM C/ RODIZIOS13201001003         222301   31103010157         222301   13203001001                                                                  19840627        0000000000002121001000000000000000000000000000000000000000199323001000000000000000000000000000000000000000000000000000000000000000000000000000000000000000000000000000000000000000000000000000000000000000000000000021210000000000000000000000000000000000000000000000000000000000000000000000000000000000000000001993230000000000000000000000000000000000000000000000000000000000000000000000000000000000000000000000000000000000000000000000000000000000000000        00000000000000000000000000000000000000000019840627                                                     222301   222301                                                                           000000000000000000  0000000000000000000000000000000000000000000000000000000000000000000000                                                                      
010000000059000219840627CADEIRA GIRATORIA DE COURVIM C/ RODIZIOS000001000        000059                                                                          002180                                      N      000000000000000000                                      01 CADEIRA GIRATORIA DE COURVIM C/ RODIZIOS13201001003         222301   31103010157         222301   13203001001                                                                  19840627        0000000000002131001000000000000000000000000000000000000000200263001000000000000000000000000000000000000000000000000000000000000000000000000000000000000000000000000000000000000000000000000000000000000000000000000021310000000000000000000000000000000000000000000000000000000000000000000000000000000000000000002002630000000000000000000000000000000000000000000000000000000000000000000000000000000000000000000000000000000000000000000000000000000000000000        00000000000000000000000000000000000000000019840627                                                     222301   222301                                                                           000000000000000000  0000000000000000000000000000000000000000000000000000000000000000000000                                                                      
010000000065000119840627CADEIRA GIRATORIA DE COURVIM C/ RODIZIOS000001000        000065                                                                          002180                                      N      000000000000000000                                      01 CADEIRA GIRATORIA DE COURVIM C/ RODIZIOS13201001003         222301   31103010157         222301   13203001001                                                                  19840627        0000000000002121001000000000000000000000000000000000000000199323001000000000000000000000000000000000000000000000000000000000000000000000000000000000000000000000000000000000000000000000000000000000000000000000000021210000000000000000000000000000000000000000000000000000000000000000000000000000000000000000001993230000000000000000000000000000000000000000000000000000000000000000000000000000000000000000000000000000000000000000000000000000000000000000        00000000000000000000000000000000000000000019840627                                                     222301   222301                                                                           000000000000000000  0000000000000000000000000000000000000000000000000000000000000000000000                                                                      
010000000065000219840627CADEIRA GIRATORIA DE COURVIM C/ RODIZIOS000001000        000065                                                                          002180                                      N      000000000000000000                                      01 CADEIRA GIRATORIA DE COURVIM C/ RODIZIOS13201001003         222301   31103010157         222301   13203001001                                                                  19840627        0000000000002131001000000000000000000000000000000000000000200263001000000000000000000000000000000000000000000000000000000000000000000000000000000000000000000000000000000000000000000000000000000000000000000000000021310000000000000000000000000000000000000000000000000000000000000000000000000000000000000000002002630000000000000000000000000000000000000000000000000000000000000000000000000000000000000000000000000000000000000000000000000000000000000000        00000000000000000000000000000000000000000019840627                                                     222301   222301                                                                           000000000000000000  0000000000000000000000000000000000000000000000000000000000000000000000                                                                      
010000000075000119840627CADEIRA GIRATORIA DE COURVIM C/ RODIZIOS000001000        000075                                                                          002180                                      N      000000000000000000                                      01 CADEIRA GIRATORIA DE COURVIM C/ RODIZIOS13201001003         222301   31103010157         222301   13203001001                                                                  19840627        0000000000002121001000000000000000000000000000000000000000199323001000000000000000000000000000000000000000000000000000000000000000000000000000000000000000000000000000000000000000000000000000000000000000000000000021210000000000000000000000000000000000000000000000000000000000000000000000000000000000000000001993230000000000000000000000000000000000000000000000000000000000000000000000000000000000000000000000000000000000000000000000000000000000000000        00000000000000000000000000000000000000000019840627                                                     222301   222301                                                                           000000000000000000  0000000000000000000000000000000000000000000000000000000000000000000000                                                                      
010000000075000219840627CADEIRA GIRATORIA DE COURVIM C/ RODIZIOS000001000        000075                                                                          002180                                      N      000000000000000000                                      01 CADEIRA GIRATORIA DE COURVIM C/ RODIZIOS13201001003         222301   31103010157         222301   13203001001                                                                  19840627        0000000000002131001000000000000000000000000000000000000000200263001000000000000000000000000000000000000000000000000000000000000000000000000000000000000000000000000000000000000000000000000000000000000000000000000021310000000000000000000000000000000000000000000000000000000000000000000000000000000000000000002002630000000000000000000000000000000000000000000000000000000000000000000000000000000000000000000000000000000000000000000000000000000000000000        00000000000000000000000000000000000000000019840627                                                     222301   222301                                                                           000000000000000000  0000000000000000000000000000000000000000000000000000000000000000000000                                                                      
010000000199000119840627CADEIRA GIRATORIA DE COURVIM MARROM     000001000        000199                                                                          002180                                      N      000000000000000000                                      01 CADEIRA GIRATORIA DE COURVIM MARROM     13201001003         200101   31103010157         200101   13203001001                                                                  19840627        0000000000002121001000000000000000000000000000000000000000199323001000000000000000000000000000000000000000000000000000000000000000000000000000000000000000000000000000000000000000000000000000000000000000000000000021210000000000000000000000000000000000000000000000000000000000000000000000000000000000000000001993230000000000000000000000000000000000000000000000000000000000000000000000000000000000000000000000000000000000000000000000000000000000000000        00000000000000000000000000000000000000000019840627                                                     200101   200101                                                                           000000000000000000  0000000000000000000000000000000000000000000000000000000000000000000000                                                                      
010000000199000219840627CADEIRA GIRATORIA DE COURVIM MARROM     000001000        000199                                                                          002180                                      N      000000000000000000                                      01 CADEIRA GIRATORIA DE COURVIM MARROM     13201001003         200101   31103010157         200101   13203001001                                                                  19840627        0000000000002131001000000000000000000000000000000000000000200263001000000000000000000000000000000000000000000000000000000000000000000000000000000000000000000000000000000000000000000000000000000000000000000000000021310000000000000000000000000000000000000000000000000000000000000000000000000000000000000000002002630000000000000000000000000000000000000000000000000000000000000000000000000000000000000000000000000000000000000000000000000000000000000000        00000000000000000000000000000000000000000019840627                                                     200101   200101                                                                           000000000000000000  0000000000000000000000000000000000000000000000000000000000000000000000                                                                      
010000000303000119840627CADEIRA GIRATORIA DE TECIDO C/ RODIZIOS 000001000        000303                                                                          002180                                      N      000000000000000000                                      01 CADEIRA GIRATORIA DE TECIDO C/ RODIZIOS 13201001003         211201   31103010157         211201   13203001001                                                                  19840627        0000000000005595001000000000000000000000000000000000000000525796001000000000000000000000000000000000000000000000000000000000000000000000000000000000000000000000000000000000000000000000000000000000000000000000000055950000000000000000000000000000000000000000000000000000000000000000000000000000000000000000005257960000000000000000000000000000000000000000000000000000000000000000000000000000000000000000000000000000000000000000000000000000000000000000        00000000000000000000000000000000000000000019840627                                                     211201   211201                                                                           000000000000000000  0000000000000000000000000000000000000000000000000000000000000000000000                                                                      
010000000303000219840627CADEIRA GIRATORIA DE TECIDO C/ RODIZIOS 000001000        000303                                                                          002180                                      N      000000000000000000                                      01 CADEIRA GIRATORIA DE TECIDO C/ RODIZIOS 13201001003         211201   31103010157         211201   13203001001                                                                  19840627        0000000000005621001000000000000000000000000000000000000000528240001000000000000000000000000000000000000000000000000000000000000000000000000000000000000000000000000000000000000000000000000000000000000000000000000056210000000000000000000000000000000000000000000000000000000000000000000000000000000000000000005282400000000000000000000000000000000000000000000000000000000000000000000000000000000000000000000000000000000000000000000000000000000000000000        00000000000000000000000000000000000000000019840627                                                     211201   211201                                                                           000000000000000000  0000000000000000000000000000000000000000000000000000000000000000000000                                                                      
010000000348000119840627MESA DE MADEIRA REDONDA REVESTIDA EM FOR000001000        000348                                                                          002180                                      N      000000000000000000                                      01 MESA DE MADEIRA REDONDA REVESTIDA EM FOR13201001003         211202   31103010157         211202   13203001001                                                                  19840627        0000000000006677001000000000000000000000000000000000000000627479001000000000000000000000000000000000000000000000000000000000000000000000000000000000000000000000000000000000000000000000000000000000000000000000000066770000000000000000000000000000000000000000000000000000000000000000000000000000000000000000006274790000000000000000000000000000000000000000000000000000000000000000000000000000000000000000000000000000000000000000000000000000000000000000        00000000000000000000000000000000000000000019840627                                                     211202   211202                                                                           000000000000000000  0000000000000000000000000000000000000000000000000000000000000000000000                                                                      
010000000348000219840627MESA DE MADEIRA REDONDA REVESTIDA EM FOR000001000        000348                                                                          002180                                      N      000000000000000000                                      01 MESA DE MADEIRA REDONDA REVESTIDA EM FOR13201001003         211202   31103010157         211202   13203001001                                                                  19840627        0000000000006708001000000000000000000000000000000000000000630392001000000000000000000000000000000000000000000000000000000000000000000000000000000000000000000000000000000000000000000000000000000000000000000000000067080000000000000000000000000000000000000000000000000000000000000000000000000000000000000000006303920000000000000000000000000000000000000000000000000000000000000000000000000000000000000000000000000000000000000000000000000000000000000000        00000000000000000000000000000000000000000019840627                                                     211202   211202                                                                           000000000000000000  0000000000000000000000000000000000000000000000000000000000000000000000                                                                      
010000070502000119840627MESA EM CREJEIRA TOPO SEMI ARREDONDADO  000001000        070502                                                                          002180                                      N      000000000000000000                                      01 MESA EM CREJEIRA TOPO SEMI ARREDONDADO  13201001003         200101   31103010157         200101   13203001001                                                                  19840627        0000000000006677001000000000000000000000000000000000000000627479001000000000000000000000000000000000000000000000000000000000000000000000000000000000000000000000000000000000000000000000000000000000000000000000000066770000000000000000000000000000000000000000000000000000000000000000000000000000000000000000006274790000000000000000000000000000000000000000000000000000000000000000000000000000000000000000000000000000000000000000000000000000000000000000        00000000000000000000000000000000000000000019840627                                                     200101   200101                                                                           000000000000000000  0000000000000000000000000000000000000000000000000000000000000000000000                                                                      
010000070502000219840627MESA EM CREJEIRA TOPO SEMI ARREDONDADO  000001000        070502                                                                          002180                                      N      000000000000000000                                      01 MESA EM CREJEIRA TOPO SEMI ARREDONDADO  13201001003         200101   31103010157         200101   13203001001                                                                  19840627        0000000000006708001000000000000000000000000000000000000000630392001000000000000000000000000000000000000000000000000000000000000000000000000000000000000000000000000000000000000000000000000000000000000000000000000067080000000000000000000000000000000000000000000000000000000000000000000000000000000000000000006303920000000000000000000000000000000000000000000000000000000000000000000000000000000000000000000000000000000000000000000000000000000000000000        00000000000000000000000000000000000000000019840627                                                     200101   200101                                                                           000000000000000000  0000000000000000000000000000000000000000000000000000000000000000000000                                                                      
010000070506000119840627CADEIRA FIXA EM TECIDO NA COR VERDE CROM000001000        070506                                                                          002180                                      N      000000000000000000                                      01 CADEIRA FIXA EM TECIDO NA COR VERDE CROM13201001003         200101   31103010157         200101   13203001001                                                                  19840627        0000000000002238001000000000000000000000000000000000000000210319001000000000000000000000000000000000000000000000000000000000000000000000000000000000000000000000000000000000000000000000000000000000000000000000000022380000000000000000000000000000000000000000000000000000000000000000000000000000000000000000002103190000000000000000000000000000000000000000000000000000000000000000000000000000000000000000000000000000000000000000000000000000000000000000        00000000000000000000000000000000000000000019840627                                                     200101   200101                                                                           000000000000000000  0000000000000000000000000000000000000000000000000000000000000000000000                                                                      
010000070506000219840627CADEIRA FIXA EM TECIDO NA COR VERDE CROM000001000        070506                                                                          002180                                      N      000000000000000000                                      01 CADEIRA FIXA EM TECIDO NA COR VERDE CROM13201001003         200101   31103010157         200101   13203001001                                                                  19840627        0000000000002248001000000000000000000000000000000000000000211258001000000000000000000000000000000000000000000000000000000000000000000000000000000000000000000000000000000000000000000000000000000000000000000000000022480000000000000000000000000000000000000000000000000000000000000000000000000000000000000000002112580000000000000000000000000000000000000000000000000000000000000000000000000000000000000000000000000000000000000000000000000000000000000000        00000000000000000000000000000000000000000019840627                                                     200101   200101                                                                           000000000000000000  0000000000000000000000000000000000000000000000000000000000000000000000                                                                      
010000070507000119840627CADEIRA FIXA EM TECIDO NA COR VERDE CROM000001000        070507                                                                          002180                                      N      000000000000000000                                      01 CADEIRA FIXA EM TECIDO NA COR VERDE CROM13201001003         200101   31103010157         200101   13203001001                                                                  19840627        0000000000002238001000000000000000000000000000000000000000210319001000000000000000000000000000000000000000000000000000000000000000000000000000000000000000000000000000000000000000000000000000000000000000000000000022380000000000000000000000000000000000000000000000000000000000000000000000000000000000000000002103190000000000000000000000000000000000000000000000000000000000000000000000000000000000000000000000000000000000000000000000000000000000000000        00000000000000000000000000000000000000000019840627                                                     200101   200101                                                                           000000000000000000  0000000000000000000000000000000000000000000000000000000000000000000000                                                                      
010000070507000219840627CADEIRA FIXA EM TECIDO NA COR VERDE CROM000001000        070507                                                                          002180                                      N      000000000000000000                                      01 CADEIRA FIXA EM TECIDO NA COR VERDE CROM13201001003         200101   31103010157         200101   13203001001                                                                  19840627        0000000000002248001000000000000000000000000000000000000000211258001000000000000000000000000000000000000000000000000000000000000000000000000000000000000000000000000000000000000000000000000000000000000000000000000022480000000000000000000000000000000000000000000000000000000000000000000000000000000000000000002112580000000000000000000000000000000000000000000000000000000000000000000000000000000000000000000000000000000000000000000000000000000000000000        00000000000000000000000000000000000000000019840627                                                     200101   200101                                                                           000000000000000000  0000000000000000000000000000000000000000000000000000000000000000000000                                                                      
010000070508000119840627CADEIRA FIXA EM TECIDO NA COR VERDE CROM000001000        070508                                                                          002180                                      N      000000000000000000                                      01 CADEIRA FIXA EM TECIDO NA COR VERDE CROM13201001003         200101   31103010157         200101   13203001001                                                                  19840627        0000000000002238001000000000000000000000000000000000000000210319001000000000000000000000000000000000000000000000000000000000000000000000000000000000000000000000000000000000000000000000000000000000000000000000000022380000000000000000000000000000000000000000000000000000000000000000000000000000000000000000002103190000000000000000000000000000000000000000000000000000000000000000000000000000000000000000000000000000000000000000000000000000000000000000        00000000000000000000000000000000000000000019840627                                                     200101   200101                                                                           000000000000000000  0000000000000000000000000000000000000000000000000000000000000000000000                                                                      
010000070508000219840627CADEIRA FIXA EM TECIDO NA COR VERDE CROM000001000        070508                                                                          002180                                      N      000000000000000000                                      01 CADEIRA FIXA EM TECIDO NA COR VERDE CROM13201001003         200101   31103010157         200101   13203001001                                                                  19840627        0000000000002248001000000000000000000000000000000000000000211258001000000000000000000000000000000000000000000000000000000000000000000000000000000000000000000000000000000000000000000000000000000000000000000000000022480000000000000000000000000000000000000000000000000000000000000000000000000000000000000000002112580000000000000000000000000000000000000000000000000000000000000000000000000000000000000000000000000000000000000000000000000000000000000000        00000000000000000000000000000000000000000019840627                                                     200101   200101                                                                           000000000000000000  0000000000000000000000000000000000000000000000000000000000000000000000                                                                      
010000070509000119840627CADEIRA FIXA EM TECIDO NA COR VERDE CROM000001000        070509                                                                          002180                                      N      000000000000000000                                      01 CADEIRA FIXA EM TECIDO NA COR VERDE CROM13201001003         200101   31103010157         200101   13203001001                                                                  19840627        0000000000002238001000000000000000000000000000000000000000210319001000000000000000000000000000000000000000000000000000000000000000000000000000000000000000000000000000000000000000000000000000000000000000000000000022380000000000000000000000000000000000000000000000000000000000000000000000000000000000000000002103190000000000000000000000000000000000000000000000000000000000000000000000000000000000000000000000000000000000000000000000000000000000000000        00000000000000000000000000000000000000000019840627                                                     200101   200101                                                                           000000000000000000  0000000000000000000000000000000000000000000000000000000000000000000000                                                                      
010000070509000219840627CADEIRA FIXA EM TECIDO NA COR VERDE CROM000001000        070509                                                                          002180                                      N      000000000000000000                                      01 CADEIRA FIXA EM TECIDO NA COR VERDE CROM13201001003         200101   31103010157         200101   13203001001                                                                  19840627        0000000000002248001000000000000000000000000000000000000000211258001000000000000000000000000000000000000000000000000000000000000000000000000000000000000000000000000000000000000000000000000000000000000000000000000022480000000000000000000000000000000000000000000000000000000000000000000000000000000000000000002112580000000000000000000000000000000000000000000000000000000000000000000000000000000000000000000000000000000000000000000000000000000000000000        00000000000000000000000000000000000000000019840627                                                     200101   200101                                                                           000000000000000000  0000000000000000000000000000000000000000000000000000000000000000000000                                                                      
010000000246000119840628FREEZER                                 000001000        000246                                                                          999315                                      N      000000000000000000                                      01 FREEZER                                 13201001003         222301   31103010157         222301   13203001001                                                                  19840628        0000000000020315001000000000000000000000000000000000000001909125001000000000000000000000000000000000000000000000000000000000000000000000000000000000000000000000000000000000000000000000000000000000000000000000000203150000000000000000000000000000000000000000000000000000000000000000000000000000000000000000019091250000000000000000000000000000000000000000000000000000000000000000000000000000000000000000000000000000000000000000000000000000000000000000        00000000000000000000000000000000000000000019840628                                                     222301   222301                                                                           000000000000000000  0000000000000000000000000000000000000000000000000000000000000000000000                                                                      
010000000246000219840628FREEZER                                 000001000        000246                                                                          999315                                      N      000000000000000000                                      01 FREEZER                                 13201001003         222301   31103010157         222301   13203001001                                                                  19840628        0000000000020411001000000000000000000000000000000000000001918147001000000000000000000000000000000000000000000000000000000000000000000000000000000000000000000000000000000000000000000000000000000000000000000000000204110000000000000000000000000000000000000000000000000000000000000000000000000000000000000000019181470000000000000000000000000000000000000000000000000000000000000000000000000000000000000000000000000000000000000000000000000000000000000000        00000000000000000000000000000000000000000019840628                                                     222301   222301                                                                           000000000000000000  0000000000000000000000000000000000000000000000000000000000000000000000                                                                      
010000070543000119840628EXAME AUT. EXACAM I 380V                000001000        070543                                                                          042756                                      N      000000000000000000                                      01 EXAME AUT. EXACAM I 380V                13201001005         200101   31103010157         200101   13203001001                                                                  19840628        0000000000283544001000000000000000000000000000000000000026646368001000000000000000000000000000000000000000000000000000000000000000000000000000000000000000000000000000000000000000000000000000000000000000000000002835440000000000000000000000000000000000000000000000000000000000000000000000000000000000000000266463680000000000000000000000000000000000000000000000000000000000000000000000000000000000000000000000000000000000000000000000000000000000000000        00000000000000000000000000000000000000000019840628                                                     200101   200101                                                                           000000000000000000  0000000000000000000000000000000000000000000000000000000000000000000000                                                                      
010000070543000219840628EXAME AUT. EXACAM I 380V                000001000        070543                                                                          042756                                      N      000000000000000000                                      01 EXAME AUT. EXACAM I 380V                13201001005         200101   31103010157         200101   13203001001                                                                  19840628        0000000000284885001000000000000000000000000000000000000026772390001000000000000000000000000000000000000000000000000000000000000000000000000000000000000000000000000000000000000000000000000000000000000000000000002848850000000000000000000000000000000000000000000000000000000000000000000000000000000000000000267723900000000000000000000000000000000000000000000000000000000000000000000000000000000000000000000000000000000000000000000000000000000000000000        00000000000000000000000000000000000000000019840628                                                     200101   200101                                                                           000000000000000000  0000000000000000000000000000000000000000000000000000000000000000000000                                                                      
010000070500000119840710ESTANTE EM CEREJEIRA TOPO SEMI ARREDODND000001000        070500                                                                          002282                                      N      000000000000000000                                      01 ESTANTE EM CEREJEIRA TOPO SEMI ARREDODND13201001003         200101   31103010157         200101   13203001001                                                                  19840710        0000000000006530001000000000000000000000000000000000000000613664001000000000000000000000000000000000000000000000000000000000000000000000000000000000000000000000000000000000000000000000000000000000000000000000000065300000000000000000000000000000000000000000000000000000000000000000000000000000000000000000006136640000000000000000000000000000000000000000000000000000000000000000000000000000000000000000000000000000000000000000000000000000000000000000        00000000000000000000000000000000000000000019840710                                                     200101   200101                                                                           000000000000000000  0000000000000000000000000000000000000000000000000000000000000000000000                                                                      
010000070500000219840710ESTANTE EM CEREJEIRA TOPO SEMI ARREDODND000001000        070500                                                                          002282                                      N      000000000000000000                                      01 ESTANTE EM CEREJEIRA TOPO SEMI ARREDODND13201001003         200101   31103010157         200101   13203001001                                                                  19840710        0000000000006560001000000000000000000000000000000000000000616483001000000000000000000000000000000000000000000000000000000000000000000000000000000000000000000000000000000000000000000000000000000000000000000000000065600000000000000000000000000000000000000000000000000000000000000000000000000000000000000000006164830000000000000000000000000000000000000000000000000000000000000000000000000000000000000000000000000000000000000000000000000000000000000000        00000000000000000000000000000000000000000019840710                                                     200101   200101                                                                           000000000000000000  0000000000000000000000000000000000000000000000000000000000000000000000                                                                      
010000070501000119840710MESA EM CREJEIRA TOPO SEMI ARREDONDADO  000001000        070501                                                                          002282                                      N      000000000000000000                                      01 MESA EM CREJEIRA TOPO SEMI ARREDONDADO  13201001003         200101   31103010157         200101   13203001001                                                                  19840710        0000000000004997001000000000000000000000000000000000000000469599001000000000000000000000000000000000000000000000000000000000000000000000000000000000000000000000000000000000000000000000000000000000000000000000000049970000000000000000000000000000000000000000000000000000000000000000000000000000000000000000004695990000000000000000000000000000000000000000000000000000000000000000000000000000000000000000000000000000000000000000000000000000000000000000        00000000000000000000000000000000000000000019840710                                                     200101   200101                                                                           000000000000000000  0000000000000000000000000000000000000000000000000000000000000000000000                                                                      
010000070501000219840710MESA EM CREJEIRA TOPO SEMI ARREDONDADO  000001000        070501                                                                          002282                                      N      000000000000000000                                      01 MESA EM CREJEIRA TOPO SEMI ARREDONDADO  13201001003         200101   31103010157         200101   13203001001                                                                  19840710        0000000000005020001000000000000000000000000000000000000000471760001000000000000000000000000000000000000000000000000000000000000000000000000000000000000000000000000000000000000000000000000000000000000000000000000050200000000000000000000000000000000000000000000000000000000000000000000000000000000000000000004717600000000000000000000000000000000000000000000000000000000000000000000000000000000000000000000000000000000000000000000000000000000000000000        00000000000000000000000000000000000000000019840710                                                     200101   200101                                                                           000000000000000000  0000000000000000000000000000000000000000000000000000000000000000000000                                                                      
