010600000006000120050131IMPLANTAÃ?O SISTEMA MICROSIGA           000001000        600006                                                                          420968                                      N      000000000000000000                                      01 IMPLANTAÃ?O SISTEMA MICROSIGA           13201001011         200101   31103010157         200101   13203001001                                                                  20050131        0000000004214350002000000000000000000000000000000000000396048304002000000000000000000000000000000000000000000000000000000000000000000000000000000000000000000000000000000000000000000000000000000000000000000000003511950000000000000000000000000000000000000000000000000000000000000000000000000000000000000000330039470000000000000000000000000000000000000000000000000000000000000000000000000000000000000000000000000000000000000000000000000000000000000000        00000000000000000000000000000000000000000020050131                                                     200101   200101                                                                           000000000000000000  0000000000000000000000000000000000000000000000000000000000000000000000                                                                      
010000073609000120040426AQUISICAO DE INSTALACOES                000001000        073609                                                                          000000                                      N      000000000000000000                                      01 AQUISICAO DE INSTALACOES                13201001006         200101   31103010157         200101   13203001001                                                                  20040426        0000000000123050001000000000000000000000000000000000000011563763001000000000000000000000000000000000000000000000000000000000000000000000000000000000000000000000000000000000000000000000000000000000000000000000000112750000000000000000000000000000000000000000000000000000000000000000000000000000000000000000010595810000000000000000000000000000000000000000000000000000000000000000000000000000000000000000000000000000000000000000000000000000000000000000        00000000000000000000000000000000000000000020040426                                                     200101   200101                                                                           000000000000000000  0000000000000000000000000000000000000000000000000000000000000000000000                                                                      
010000073602000120040406PARA RAIO POLIMERICO 21KV               000001000        073602                                                                          001015                                      N      000000000000000000                                      01 PARA RAIO POLIMERICO 21KV               13201001005         200101   31103010157         200101   13203001001                                                                  20040406        0000000000061380001000000000000000000000000000000000000005768255001000000000000000000000000000000000000000000000000000000000000000000000000000000000000000000000000000000000000000000000000000000000000000000000000056320000000000000000000000000000000000000000000000000000000000000000000000000000000000000000005292740000000000000000000000000000000000000000000000000000000000000000000000000000000000000000000000000000000000000000000000000000000000000000        00000000000000000000000000000000000000000020040406                                                     200101   200101                                                                           000000000000000000  0000000000000000000000000000000000000000000000000000000000000000000000                                                                      
010000073603000120040406ISOLADOR MULTICORPO 25KV                000001000        073603                                                                          001015                                      N      000000000000000000                                      01 ISOLADOR MULTICORPO 25KV                13201001005         200101   31103010157         200101   13203001001                                                                  20040406        0000000000008250001000000000000000000000000000000000000000775303001000000000000000000000000000000000000000000000000000000000000000000000000000000000000000000000000000000000000000000000000000000000000000000000000007590000000000000000000000000000000000000000000000000000000000000000000000000000000000000000000713280000000000000000000000000000000000000000000000000000000000000000000000000000000000000000000000000000000000000000000000000000000000000000        00000000000000000000000000000000000000000020040406                                                     200101   200101                                                                           000000000000000000  0000000000000000000000000000000000000000000000000000000000000000000000                                                                      
010000073604000120040406PINO P/ ISOLADOR 25KV                   000001000        073604                                                                          001015                                      N      000000000000000000                                      01 PINO P/ ISOLADOR 25KV                   13201001005         200101   31103010157         200101   13203001001                                                                  20040406        0000000000002310001000000000000000000000000000000000000000217085001000000000000000000000000000000000000000000000000000000000000000000000000000000000000000000000000000000000000000000000000000000000000000000000000002090000000000000000000000000000000000000000000000000000000000000000000000000000000000000000000196410000000000000000000000000000000000000000000000000000000000000000000000000000000000000000000000000000000000000000000000000000000000000000        00000000000000000000000000000000000000000020040406                                                     200101   200101                                                                           000000000000000000  0000000000000000000000000000000000000000000000000000000000000000000000                                                                      
010000073605000120040401AQUISICAO DE INSTALACOES                000001000        073605                                                                          000000                                      N      000000000000000000                                      01 AQUISICAO DE INSTALACOES                13201001006         200101   31103010157         200101   13203001001                                                                  20040401        0000000000440000001000000000000000000000000000000000000041349497001000000000000000000000000000000000000000000000000000000000000000000000000000000000000000000000000000000000000000000000000000000000000000000000000403370000000000000000000000000000000000000000000000000000000000000000000000000000000000000000037907150000000000000000000000000000000000000000000000000000000000000000000000000000000000000000000000000000000000000000000000000000000000000000        00000000000000000000000000000000000000000020040401                                                     200101   200101                                                                           000000000000000000  0000000000000000000000000000000000000000000000000000000000000000000000                                                                      
010000073606000120040401AQUISICAO DE INSTALACOES                000001000        073606                                                                          000000                                      N      000000000000000000                                      01 AQUISICAO DE INSTALACOES                13201001006         200101   31103010157         200101   13203001001                                                                  20040401        0000000001130000001000000000000000000000000000000000000106193027001000000000000000000000000000000000000000000000000000000000000000000000000000000000000000000000000000000000000000000000000000000000000000000000001035870000000000000000000000000000000000000000000000000000000000000000000000000000000000000000097347050000000000000000000000000000000000000000000000000000000000000000000000000000000000000000000000000000000000000000000000000000000000000000        00000000000000000000000000000000000000000020040401                                                     200101   200101                                                                           000000000000000000  0000000000000000000000000000000000000000000000000000000000000000000000                                                                      
010000073607000120040401AQUISICAO DE INSTALACOES                000001000        073607                                                                          000000                                      N      000000000000000000                                      01 AQUISICAO DE INSTALACOES                13201001006         200101   31103010157         200101   13203001001                                                                  20040401        0000000000099958001000000000000000000000000000000000000009393666001000000000000000000000000000000000000000000000000000000000000000000000000000000000000000000000000000000000000000000000000000000000000000000000000091630000000000000000000000000000000000000000000000000000000000000000000000000000000000000000008611030000000000000000000000000000000000000000000000000000000000000000000000000000000000000000000000000000000000000000000000000000000000000000        00000000000000000000000000000000000000000020040401                                                     200101   200101                                                                           000000000000000000  0000000000000000000000000000000000000000000000000000000000000000000000                                                                      
010000073608000120040401AQUISICAO DE INSTALACOES                000001000        073608                                                                          000000                                      N      000000000000000000                                      01 AQUISICAO DE INSTALACOES                13201001006         200101   31103010157         200101   13203001001                                                                  20040401        0000000000034429001000000000000000000000000000000000000003235504001000000000000000000000000000000000000000000000000000000000000000000000000000000000000000000000000000000000000000000000000000000000000000000000000031570000000000000000000000000000000000000000000000000000000000000000000000000000000000000000002966830000000000000000000000000000000000000000000000000000000000000000000000000000000000000000000000000000000000000000000000000000000000000000        00000000000000000000000000000000000000000020040401                                                     200101   200101                                                                           000000000000000000  0000000000000000000000000000000000000000000000000000000000000000000000                                                                      
010000073535000120040318MAQUINA AUTENTICADORA                   000001000        073535                                                                          001787                                      N      000000000000000000                                      01 MAQUINA AUTENTICADORA                   13201001005         200101   31103010157         200101   13203001001                                                                  20040318        0000000000038000001000000000000000000000000000000000000003571093001000000000000000000000000000000000000000000000000000000000000000000000000000000000000000000000000000000000000000000000000000000000000000000000000038040000000000000000000000000000000000000000000000000000000000000000000000000000000000000000003574850000000000000000000000000000000000000000000000000000000000000000000000000000000000000000000000000000000000000000000000000000000000000000        00000000000000000000000000000000000000000020040318                                                     200101   200101                                                                           000000000000000000  0000000000000000000000000000000000000000000000000000000000000000000000                                                                      
010000073536000120040318MAQUINA AUTENTICADORA                   000001000        073536                                                                          001787                                      N      000000000000000000                                      01 MAQUINA AUTENTICADORA                   13201001005         200101   31103010157         200101   13203001001                                                                  20040318        0000000000038000001000000000000000000000000000000000000003571093001000000000000000000000000000000000000000000000000000000000000000000000000000000000000000000000000000000000000000000000000000000000000000000000000038040000000000000000000000000000000000000000000000000000000000000000000000000000000000000000003574850000000000000000000000000000000000000000000000000000000000000000000000000000000000000000000000000000000000000000000000000000000000000000        00000000000000000000000000000000000000000020040318                                                     200101   200101                                                                           000000000000000000  0000000000000000000000000000000000000000000000000000000000000000000000                                                                      
010000000001000120040302COFRE C/ SEGREDO ANALOGICO              000001000        000001                                                                          000000                                      N      000000000000000000                                      01 COFRE C/ SEGREDO ANALOGICO              13201001003         222301   31103010157         222301   13203001001                                                                  20040302        0000000000000100001000000000000000000000000000000000000000009398001000000000000000000000000000000000000000000000000000000000000000000000000000000000000000000000000000000000000000000000000000000000000000000000000000000000000000000000000000000000000000000000000000000000000000000000000000000000000000000000000000000000000000000000000000000000000000000000000000000000000000000000000000000000000000000000000000000000000000000000000000000000000000000000        00000000000000000000000000000000000000000020040302                                                     222301   222301                                                                           000000000000000000  0000000000000000000000000000000000000000000000000000000000000000000000                                                                      
010000000002000120040302ARMARIO DE MADEIRA C/ 2 PORTA(S)        000001000        000002                                                                          000000                                      N      000000000000000000                                      01 ARMARIO DE MADEIRA C/ 2 PORTA(S)        13201001003         222301   31103010157         222301   13203001001                                                                  20040302        0000000000000100001000000000000000000000000000000000000000009398001000000000000000000000000000000000000000000000000000000000000000000000000000000000000000000000000000000000000000000000000000000000000000000000000000000000000000000000000000000000000000000000000000000000000000000000000000000000000000000000000000000000000000000000000000000000000000000000000000000000000000000000000000000000000000000000000000000000000000000000000000000000000000000000        00000000000000000000000000000000000000000020040302                                                     222301   222301                                                                           000000000000000000  0000000000000000000000000000000000000000000000000000000000000000000000                                                                      
010000000003000120040302ESTANTE DE MADEIRA C/ 4 PRATELEIRA(S) E 000001000        000003                                                                          000000                                      N      000000000000000000                                      01 ESTANTE DE MADEIRA C/ 4 PRATELEIRA(S) E 13201001003         222301   31103010157         222301   13203001001                                                                  20040302        0000000000000100001000000000000000000000000000000000000000009398001000000000000000000000000000000000000000000000000000000000000000000000000000000000000000000000000000000000000000000000000000000000000000000000000000000000000000000000000000000000000000000000000000000000000000000000000000000000000000000000000000000000000000000000000000000000000000000000000000000000000000000000000000000000000000000000000000000000000000000000000000000000000000000000        00000000000000000000000000000000000000000020040302                                                     222301   222301                                                                           000000000000000000  0000000000000000000000000000000000000000000000000000000000000000000000                                                                      
010000000004000120040302MESA AUXILIAR DE MADEIRA C/ RODIZIOS    000001000        000004                                                                          000000                                      N      000000000000000000                                      01 MESA AUXILIAR DE MADEIRA C/ RODIZIOS    13201001003         222301   31103010157         222301   13203001001                                                                  20040302        0000000000000100001000000000000000000000000000000000000000009398001000000000000000000000000000000000000000000000000000000000000000000000000000000000000000000000000000000000000000000000000000000000000000000000000000000000000000000000000000000000000000000000000000000000000000000000000000000000000000000000000000000000000000000000000000000000000000000000000000000000000000000000000000000000000000000000000000000000000000000000000000000000000000000000        00000000000000000000000000000000000000000020040302                                                     222301   222301                                                                           000000000000000000  0000000000000000000000000000000000000000000000000000000000000000000000                                                                      
010000000005000120040302MESA DE MADEIRA C/ 2 GAVETA(S)          000001000        000005                                                                          000000                                      N      000000000000000000                                      01 MESA DE MADEIRA C/ 2 GAVETA(S)          13201001003         222301   31103010157         222301   13203001001                                                                  20040302        0000000000000100001000000000000000000000000000000000000000009398001000000000000000000000000000000000000000000000000000000000000000000000000000000000000000000000000000000000000000000000000000000000000000000000000000000000000000000000000000000000000000000000000000000000000000000000000000000000000000000000000000000000000000000000000000000000000000000000000000000000000000000000000000000000000000000000000000000000000000000000000000000000000000000000        00000000000000000000000000000000000000000020040302                                                     222301   222301                                                                           000000000000000000  0000000000000000000000000000000000000000000000000000000000000000000000                                                                      
010000000006000120040302MESA AUXILIAR C/ ESTRUTURA DE FERRO E 1 000001000        000006                                                                          000000                                      N      000000000000000000                                      01 MESA AUXILIAR C/ ESTRUTURA DE FERRO E 1 13201001003         222301   31103010157         222301   13203001001                                                                  20040302        0000000000000100001000000000000000000000000000000000000000009398001000000000000000000000000000000000000000000000000000000000000000000000000000000000000000000000000000000000000000000000000000000000000000000000000000000000000000000000000000000000000000000000000000000000000000000000000000000000000000000000000000000000000000000000000000000000000000000000000000000000000000000000000000000000000000000000000000000000000000000000000000000000000000000000        00000000000000000000000000000000000000000020040302                                                     222301   222301                                                                           000000000000000000  0000000000000000000000000000000000000000000000000000000000000000000000                                                                      
010000000007000120040302MESA DE MADEIRA C/ 3 GAVETA(S)          000001000        000007                                                                          000000                                      N      000000000000000000                                      01 MESA DE MADEIRA C/ 3 GAVETA(S)          13201001003         222301   31103010157         222301   13203001001                                                                  20040302        0000000000000100001000000000000000000000000000000000000000009398001000000000000000000000000000000000000000000000000000000000000000000000000000000000000000000000000000000000000000000000000000000000000000000000000000000000000000000000000000000000000000000000000000000000000000000000000000000000000000000000000000000000000000000000000000000000000000000000000000000000000000000000000000000000000000000000000000000000000000000000000000000000000000000000        00000000000000000000000000000000000000000020040302                                                     222301   222301                                                                           000000000000000000  0000000000000000000000000000000000000000000000000000000000000000000000                                                                      
010000000022000120040302CADEIRA FIXA DE COURVIM CINZA           000001000        000022                                                                          000000                                      N      000000000000000000                                      01 CADEIRA FIXA DE COURVIM CINZA           13201001003         222301   31103010157         222301   13203001001                                                                  20040302        0000000000000100001000000000000000000000000000000000000000009398001000000000000000000000000000000000000000000000000000000000000000000000000000000000000000000000000000000000000000000000000000000000000000000000000000000000000000000000000000000000000000000000000000000000000000000000000000000000000000000000000000000000000000000000000000000000000000000000000000000000000000000000000000000000000000000000000000000000000000000000000000000000000000000000        00000000000000000000000000000000000000000020040302                                                     222301   222301                                                                           000000000000000000  0000000000000000000000000000000000000000000000000000000000000000000000                                                                      
010000000025000120040302ARMARIO DE MADEIRA BAIXO C/ 4 PORTA(S)  000001000        000025                                                                          000000                                      N      000000000000000000                                      01 ARMARIO DE MADEIRA BAIXO C/ 4 PORTA(S)  13201001003         222301   31103010157         222301   13203001001                                                                  20040302        0000000000000100001000000000000000000000000000000000000000009398001000000000000000000000000000000000000000000000000000000000000000000000000000000000000000000000000000000000000000000000000000000000000000000000000000000000000000000000000000000000000000000000000000000000000000000000000000000000000000000000000000000000000000000000000000000000000000000000000000000000000000000000000000000000000000000000000000000000000000000000000000000000000000000000        00000000000000000000000000000000000000000020040302                                                     222301   222301                                                                           000000000000000000  0000000000000000000000000000000000000000000000000000000000000000000000                                                                      
010000000027000120040302MESA DE ACO                             000001000        000027                                                                          000000                                      N      000000000000000000                                      01 MESA DE ACO                             13201001003         222301   31103010157         222301   13203001001                                                                  20040302        0000000000000100001000000000000000000000000000000000000000009398001000000000000000000000000000000000000000000000000000000000000000000000000000000000000000000000000000000000000000000000000000000000000000000000000000000000000000000000000000000000000000000000000000000000000000000000000000000000000000000000000000000000000000000000000000000000000000000000000000000000000000000000000000000000000000000000000000000000000000000000000000000000000000000000        00000000000000000000000000000000000000000020040302                                                     222301   222301                                                                           000000000000000000  0000000000000000000000000000000000000000000000000000000000000000000000                                                                      
010000000028000120040302MESA DE ACO                             000001000        000028                                                                          000000                                      N      000000000000000000                                      01 MESA DE ACO                             13201001003         222301   31103010157         222301   13203001001                                                                  20040302        0000000000000100001000000000000000000000000000000000000000009398001000000000000000000000000000000000000000000000000000000000000000000000000000000000000000000000000000000000000000000000000000000000000000000000000000000000000000000000000000000000000000000000000000000000000000000000000000000000000000000000000000000000000000000000000000000000000000000000000000000000000000000000000000000000000000000000000000000000000000000000000000000000000000000000        00000000000000000000000000000000000000000020040302                                                     222301   222301                                                                           000000000000000000  0000000000000000000000000000000000000000000000000000000000000000000000                                                                      
010000000029000120040302VENTILADOR DE PEDESTAL                  000001000        000029                                                                          000000                                      N      000000000000000000                                      01 VENTILADOR DE PEDESTAL                  13201001003         222301   31103010157         222301   13203001001                                                                  20040302        0000000000000100001000000000000000000000000000000000000000009398001000000000000000000000000000000000000000000000000000000000000000000000000000000000000000000000000000000000000000000000000000000000000000000000000000000000000000000000000000000000000000000000000000000000000000000000000000000000000000000000000000000000000000000000000000000000000000000000000000000000000000000000000000000000000000000000000000000000000000000000000000000000000000000000        00000000000000000000000000000000000000000020040302                                                     222301   222301                                                                           000000000000000000  0000000000000000000000000000000000000000000000000000000000000000000000                                                                      
010000000031000120040302ARQUIVO DE ACO C/ 4 GAVETA(S)           000001000        000031                                                                          000000                                      N      000000000000000000                                      01 ARQUIVO DE ACO C/ 4 GAVETA(S)           13201001003         222301   31103010157         222301   13203001001                                                                  20040302        0000000000000100001000000000000000000000000000000000000000009398001000000000000000000000000000000000000000000000000000000000000000000000000000000000000000000000000000000000000000000000000000000000000000000000000000000000000000000000000000000000000000000000000000000000000000000000000000000000000000000000000000000000000000000000000000000000000000000000000000000000000000000000000000000000000000000000000000000000000000000000000000000000000000000000        00000000000000000000000000000000000000000020040302                                                     222301   222301                                                                           000000000000000000  0000000000000000000000000000000000000000000000000000000000000000000000                                                                      
010000000032000120040302MESA P/ MICROCOMPUTADOR                 000001000        000032                                                                          000000                                      N      000000000000000000                                      01 MESA P/ MICROCOMPUTADOR                 13201001003         222301   31103010157         222301   13203001001                                                                  20040302        0000000000000100001000000000000000000000000000000000000000009398001000000000000000000000000000000000000000000000000000000000000000000000000000000000000000000000000000000000000000000000000000000000000000000000000000000000000000000000000000000000000000000000000000000000000000000000000000000000000000000000000000000000000000000000000000000000000000000000000000000000000000000000000000000000000000000000000000000000000000000000000000000000000000000000        00000000000000000000000000000000000000000020040302                                                     222301   222301                                                                           000000000000000000  0000000000000000000000000000000000000000000000000000000000000000000000                                                                      
010000000034000120040302NO BREAK                                000001000        000034                                                                          000000                                      N      000000000000000000                                      01 NO BREAK                                13201001003         222301   31103010157         222301   13203001001                                                                  20040302        0000000000000100001000000000000000000000000000000000000000009398001000000000000000000000000000000000000000000000000000000000000000000000000000000000000000000000000000000000000000000000000000000000000000000000000000000000000000000000000000000000000000000000000000000000000000000000000000000000000000000000000000000000000000000000000000000000000000000000000000000000000000000000000000000000000000000000000000000000000000000000000000000000000000000000        00000000000000000000000000000000000000000020040302                                                     222301   222301                                                                           000000000000000000  0000000000000000000000000000000000000000000000000000000000000000000000                                                                      
010000000035000120040302SERVIDOR                                000001000        000035                                                                          000000                                      N      000000000000000000                                      01 SERVIDOR                                13201001003         222301   31103010157         222301   13203001001                                                                  20040302        0000000000000100001000000000000000000000000000000000000000009398001000000000000000000000000000000000000000000000000000000000000000000000000000000000000000000000000000000000000000000000000000000000000000000000000000000000000000000000000000000000000000000000000000000000000000000000000000000000000000000000000000000000000000000000000000000000000000000000000000000000000000000000000000000000000000000000000000000000000000000000000000000000000000000000        00000000000000000000000000000000000000000020040302                                                     222301   222301                                                                           000000000000000000  0000000000000000000000000000000000000000000000000000000000000000000000                                                                      
010000000036000120040302MONITOR DE VIDEO COLORIDO 15            000001000        000036                                                                          000000                                      N      000000000000000000                                      01 MONITOR DE VIDEO COLORIDO 15            13201001003         222301   31103010157         222301   13203001001                                                                  20040302        0000000000000100001000000000000000000000000000000000000000009398001000000000000000000000000000000000000000000000000000000000000000000000000000000000000000000000000000000000000000000000000000000000000000000000000000000000000000000000000000000000000000000000000000000000000000000000000000000000000000000000000000000000000000000000000000000000000000000000000000000000000000000000000000000000000000000000000000000000000000000000000000000000000000000000        00000000000000000000000000000000000000000020040302                                                     222301   222301                                                                           000000000000000000  0000000000000000000000000000000000000000000000000000000000000000000000                                                                      
010000000037000120040302SWITCH C/ 16 PORTA(S)                   000001000        000037                                                                          000000                                      N      000000000000000000                                      01 SWITCH C/ 16 PORTA(S)                   13201001003         222301   31103010157         222301   13203001001                                                                  20040302        0000000000000100001000000000000000000000000000000000000000009398001000000000000000000000000000000000000000000000000000000000000000000000000000000000000000000000000000000000000000000000000000000000000000000000000000000000000000000000000000000000000000000000000000000000000000000000000000000000000000000000000000000000000000000000000000000000000000000000000000000000000000000000000000000000000000000000000000000000000000000000000000000000000000000000        00000000000000000000000000000000000000000020040302                                                     222301   222301                                                                           000000000000000000  0000000000000000000000000000000000000000000000000000000000000000000000                                                                      
010000000038000120040302CONDICIONADOR DE AR                     000001000        000038                                                                          000000                                      N      000000000000000000                                      01 CONDICIONADOR DE AR                     13201001003         222301   31103010157         222301   13203001001                                                                  20040302        0000000000000100001000000000000000000000000000000000000000009398001000000000000000000000000000000000000000000000000000000000000000000000000000000000000000000000000000000000000000000000000000000000000000000000000000000000000000000000000000000000000000000000000000000000000000000000000000000000000000000000000000000000000000000000000000000000000000000000000000000000000000000000000000000000000000000000000000000000000000000000000000000000000000000000        00000000000000000000000000000000000000000020040302                                                     222301   222301                                                                           000000000000000000  0000000000000000000000000000000000000000000000000000000000000000000000                                                                      
010000000039000120040302MESA REVESTIDA EM FORMICA C/ ESTRUTURA D000001000        000039                                                                          000000                                      N      000000000000000000                                      01 MESA REVESTIDA EM FORMICA C/ ESTRUTURA D13201001003         222301   31103010157         222301   13203001001                                                                  20040302        0000000000000100001000000000000000000000000000000000000000009398001000000000000000000000000000000000000000000000000000000000000000000000000000000000000000000000000000000000000000000000000000000000000000000000000000000000000000000000000000000000000000000000000000000000000000000000000000000000000000000000000000000000000000000000000000000000000000000000000000000000000000000000000000000000000000000000000000000000000000000000000000000000000000000000        00000000000000000000000000000000000000000020040302                                                     222301   222301                                                                           000000000000000000  0000000000000000000000000000000000000000000000000000000000000000000000                                                                      
010000000040000120040302CADEIRA FIXA DE COURVIM PRETO           000001000        000040                                                                          000000                                      N      000000000000000000                                      01 CADEIRA FIXA DE COURVIM PRETO           13201001003         222301   31103010157         222301   13203001001                                                                  20040302        0000000000000100001000000000000000000000000000000000000000009398001000000000000000000000000000000000000000000000000000000000000000000000000000000000000000000000000000000000000000000000000000000000000000000000000000000000000000000000000000000000000000000000000000000000000000000000000000000000000000000000000000000000000000000000000000000000000000000000000000000000000000000000000000000000000000000000000000000000000000000000000000000000000000000000        00000000000000000000000000000000000000000020040302                                                     222301   222301                                                                           000000000000000000  0000000000000000000000000000000000000000000000000000000000000000000000                                                                      
010000000041000120040302MICROCOMPUTADOR (USUARIO: ANDRE)        000001000        000041                                                                          000000                                      N      000000000000000000                                      01 MICROCOMPUTADOR (USUARIO: ANDRE)        13201001003         222301   31103010157         222301   13203001001                                                                  20040302        0000000000000100001000000000000000000000000000000000000000009398001000000000000000000000000000000000000000000000000000000000000000000000000000000000000000000000000000000000000000000000000000000000000000000000000000000000000000000000000000000000000000000000000000000000000000000000000000000000000000000000000000000000000000000000000000000000000000000000000000000000000000000000000000000000000000000000000000000000000000000000000000000000000000000000        00000000000000000000000000000000000000000020040302                                                     222301   222301                                                                           000000000000000000  0000000000000000000000000000000000000000000000000000000000000000000000                                                                      
010000000043000120040302CADEIRA FIXA DE COURVIM                 000001000        000043                                                                          000000                                      N      000000000000000000                                      01 CADEIRA FIXA DE COURVIM                 13201001003         222301   31103010157         222301   13203001001                                                                  20040302        0000000000000100001000000000000000000000000000000000000000009398001000000000000000000000000000000000000000000000000000000000000000000000000000000000000000000000000000000000000000000000000000000000000000000000000000000000000000000000000000000000000000000000000000000000000000000000000000000000000000000000000000000000000000000000000000000000000000000000000000000000000000000000000000000000000000000000000000000000000000000000000000000000000000000000        00000000000000000000000000000000000000000020040302                                                     222301   222301                                                                           000000000000000000  0000000000000000000000000000000000000000000000000000000000000000000000                                                                      
010000000044000120040302MESA DE MADEIRA C/ ESTRUTURA DE FERRO E 000001000        000044                                                                          000000                                      N      000000000000000000                                      01 MESA DE MADEIRA C/ ESTRUTURA DE FERRO E 13201001003         222301   31103010157         222301   13203001001                                                                  20040302        0000000000000100001000000000000000000000000000000000000000009398001000000000000000000000000000000000000000000000000000000000000000000000000000000000000000000000000000000000000000000000000000000000000000000000000000000000000000000000000000000000000000000000000000000000000000000000000000000000000000000000000000000000000000000000000000000000000000000000000000000000000000000000000000000000000000000000000000000000000000000000000000000000000000000000        00000000000000000000000000000000000000000020040302                                                     222301   222301                                                                           000000000000000000  0000000000000000000000000000000000000000000000000000000000000000000000                                                                      
010000000045000120040302MICROCOMPUTADOR (USUARIO: DAVILSON)     000001000        000045                                                                          000000                                      N      000000000000000000                                      01 MICROCOMPUTADOR (USUARIO: DAVILSON)     13201001003         222301   31103010157         222301   13203001001                                                                  20040302        0000000000000100001000000000000000000000000000000000000000009398001000000000000000000000000000000000000000000000000000000000000000000000000000000000000000000000000000000000000000000000000000000000000000000000000000000000000000000000000000000000000000000000000000000000000000000000000000000000000000000000000000000000000000000000000000000000000000000000000000000000000000000000000000000000000000000000000000000000000000000000000000000000000000000000        00000000000000000000000000000000000000000020040302                                                     222301   222301                                                                           000000000000000000  0000000000000000000000000000000000000000000000000000000000000000000000                                                                      
010000000048000120040302CALCULADORA DE MESA                     000001000        000048                                                                          000000                                      N      000000000000000000                                      01 CALCULADORA DE MESA                     13201001003         222301   31103010157         222301   13203001001                                                                  20040302        0000000000000100001000000000000000000000000000000000000000009398001000000000000000000000000000000000000000000000000000000000000000000000000000000000000000000000000000000000000000000000000000000000000000000000000000000000000000000000000000000000000000000000000000000000000000000000000000000000000000000000000000000000000000000000000000000000000000000000000000000000000000000000000000000000000000000000000000000000000000000000000000000000000000000000        00000000000000000000000000000000000000000020040302                                                     222301   222301                                                                           000000000000000000  0000000000000000000000000000000000000000000000000000000000000000000000                                                                      
010000000049000120040302CADEIRA FIXA DE COURVIM                 000001000        000049                                                                          000000                                      N      000000000000000000                                      01 CADEIRA FIXA DE COURVIM                 13201001003         222301   31103010157         222301   13203001001                                                                  20040302        0000000000000100001000000000000000000000000000000000000000009398001000000000000000000000000000000000000000000000000000000000000000000000000000000000000000000000000000000000000000000000000000000000000000000000000000000000000000000000000000000000000000000000000000000000000000000000000000000000000000000000000000000000000000000000000000000000000000000000000000000000000000000000000000000000000000000000000000000000000000000000000000000000000000000000        00000000000000000000000000000000000000000020040302                                                     222301   222301                                                                           000000000000000000  0000000000000000000000000000000000000000000000000000000000000000000000                                                                      
010000000050000120040302MESA REVESTIDA EM FORMICA C/ ESTRUTURA D000001000        000050                                                                          000000                                      N      000000000000000000                                      01 MESA REVESTIDA EM FORMICA C/ ESTRUTURA D13201001003         222301   31103010157         222301   13203001001                                                                  20040302        0000000000000100001000000000000000000000000000000000000000009398001000000000000000000000000000000000000000000000000000000000000000000000000000000000000000000000000000000000000000000000000000000000000000000000000000000000000000000000000000000000000000000000000000000000000000000000000000000000000000000000000000000000000000000000000000000000000000000000000000000000000000000000000000000000000000000000000000000000000000000000000000000000000000000000        00000000000000000000000000000000000000000020040302                                                     222301   222301                                                                           000000000000000000  0000000000000000000000000000000000000000000000000000000000000000000000                                                                      
010000000051000120040302ARMARIO DE ACO C/ 2 PORTA(S) E TAMPO DE 000001000        000051                                                                          000000                                      N      000000000000000000                                      01 ARMARIO DE ACO C/ 2 PORTA(S) E TAMPO DE 13201001003         222301   31103010157         222301   13203001001                                                                  20040302        0000000000000100001000000000000000000000000000000000000000009398001000000000000000000000000000000000000000000000000000000000000000000000000000000000000000000000000000000000000000000000000000000000000000000000000000000000000000000000000000000000000000000000000000000000000000000000000000000000000000000000000000000000000000000000000000000000000000000000000000000000000000000000000000000000000000000000000000000000000000000000000000000000000000000000        00000000000000000000000000000000000000000020040302                                                     222301   222301                                                                           000000000000000000  0000000000000000000000000000000000000000000000000000000000000000000000                                                                      
010000000052000120040302ARMARIO DE ACO C/ 2 PORTA(S) E TAMPO DE 000001000        000052                                                                          000000                                      N      000000000000000000                                      01 ARMARIO DE ACO C/ 2 PORTA(S) E TAMPO DE 13201001003         222301   31103010157         222301   13203001001                                                                  20040302        0000000000000100001000000000000000000000000000000000000000009398001000000000000000000000000000000000000000000000000000000000000000000000000000000000000000000000000000000000000000000000000000000000000000000000000000000000000000000000000000000000000000000000000000000000000000000000000000000000000000000000000000000000000000000000000000000000000000000000000000000000000000000000000000000000000000000000000000000000000000000000000000000000000000000000        00000000000000000000000000000000000000000020040302                                                     222301   222301                                                                           000000000000000000  0000000000000000000000000000000000000000000000000000000000000000000000                                                                      
010000000053000120040302ARMARIO DE ACO C/ 2 PORTA(S) E TAMPO DE 000001000        000053                                                                          000000                                      N      000000000000000000                                      01 ARMARIO DE ACO C/ 2 PORTA(S) E TAMPO DE 13201001003         222301   31103010157         222301   13203001001                                                                  20040302        0000000000000100001000000000000000000000000000000000000000009398001000000000000000000000000000000000000000000000000000000000000000000000000000000000000000000000000000000000000000000000000000000000000000000000000000000000000000000000000000000000000000000000000000000000000000000000000000000000000000000000000000000000000000000000000000000000000000000000000000000000000000000000000000000000000000000000000000000000000000000000000000000000000000000000        00000000000000000000000000000000000000000020040302                                                     222301   222301                                                                           000000000000000000  0000000000000000000000000000000000000000000000000000000000000000000000                                                                      
010000000056000120040302NO BREAK                                000001000        000056                                                                          000000                                      N      000000000000000000                                      01 NO BREAK                                13201001003         222301   31103010157         222301   13203001001                                                                  20040302        0000000000000100001000000000000000000000000000000000000000009398001000000000000000000000000000000000000000000000000000000000000000000000000000000000000000000000000000000000000000000000000000000000000000000000000000000000000000000000000000000000000000000000000000000000000000000000000000000000000000000000000000000000000000000000000000000000000000000000000000000000000000000000000000000000000000000000000000000000000000000000000000000000000000000000        00000000000000000000000000000000000000000020040302                                                     222301   222301                                                                           000000000000000000  0000000000000000000000000000000000000000000000000000000000000000000000                                                                      
010000000057000120040302FAC SIMILE                              000001000        000057                                                                          000000                                      N      000000000000000000                                      01 FAC SIMILE                              13201001003         222301   31103010157         222301   13203001001                                                                  20040302        0000000000000100001000000000000000000000000000000000000000009398001000000000000000000000000000000000000000000000000000000000000000000000000000000000000000000000000000000000000000000000000000000000000000000000000000000000000000000000000000000000000000000000000000000000000000000000000000000000000000000000000000000000000000000000000000000000000000000000000000000000000000000000000000000000000000000000000000000000000000000000000000000000000000000000        00000000000000000000000000000000000000000020040302                                                     222301   222301                                                                           000000000000000000  0000000000000000000000000000000000000000000000000000000000000000000000                                                                      
010000000058000120040302IMPRESSORA MATRICIAL                    000001000        000058                                                                          000000                                      N      000000000000000000                                      01 IMPRESSORA MATRICIAL                    13201001003         222301   31103010157         222301   13203001001                                                                  20040302        0000000000000100001000000000000000000000000000000000000000009398001000000000000000000000000000000000000000000000000000000000000000000000000000000000000000000000000000000000000000000000000000000000000000000000000000000000000000000000000000000000000000000000000000000000000000000000000000000000000000000000000000000000000000000000000000000000000000000000000000000000000000000000000000000000000000000000000000000000000000000000000000000000000000000000        00000000000000000000000000000000000000000020040302                                                     222301   222301                                                                           000000000000000000  0000000000000000000000000000000000000000000000000000000000000000000000                                                                      
010000000060000120040302MESA DE MADEIRA REVESTIDA EM FORMICA C/ 000001000        000060                                                                          000000                                      N      000000000000000000                                      01 MESA DE MADEIRA REVESTIDA EM FORMICA C/ 13201001003         222301   31103010157         222301   13203001001                                                                  20040302        0000000000000100001000000000000000000000000000000000000000009398001000000000000000000000000000000000000000000000000000000000000000000000000000000000000000000000000000000000000000000000000000000000000000000000000000000000000000000000000000000000000000000000000000000000000000000000000000000000000000000000000000000000000000000000000000000000000000000000000000000000000000000000000000000000000000000000000000000000000000000000000000000000000000000000        00000000000000000000000000000000000000000020040302                                                     222301   222301                                                                           000000000000000000  0000000000000000000000000000000000000000000000000000000000000000000000                                                                      
010000000061000120040302MICROCOMPUTADOR (USUARIA: FABIANA)      000001000        000061                                                                          000000                                      N      000000000000000000                                      01 MICROCOMPUTADOR (USUARIA: FABIANA)      13201001003         222301   31103010157         222301   13203001001                                                                  20040302        0000000000000100001000000000000000000000000000000000000000009398001000000000000000000000000000000000000000000000000000000000000000000000000000000000000000000000000000000000000000000000000000000000000000000000000000000000000000000000000000000000000000000000000000000000000000000000000000000000000000000000000000000000000000000000000000000000000000000000000000000000000000000000000000000000000000000000000000000000000000000000000000000000000000000000        00000000000000000000000000000000000000000020040302                                                     222301   222301                                                                           000000000000000000  0000000000000000000000000000000000000000000000000000000000000000000000                                                                      
010000000062000120040302MONITOR DE VIDEO COLORIDO 14            000001000        000062                                                                          000000                                      N      000000000000000000                                      01 MONITOR DE VIDEO COLORIDO 14            13201001003         222301   31103010157         222301   13203001001                                                                  20040302        0000000000000100001000000000000000000000000000000000000000009398001000000000000000000000000000000000000000000000000000000000000000000000000000000000000000000000000000000000000000000000000000000000000000000000000000000000000000000000000000000000000000000000000000000000000000000000000000000000000000000000000000000000000000000000000000000000000000000000000000000000000000000000000000000000000000000000000000000000000000000000000000000000000000000000        00000000000000000000000000000000000000000020040302                                                     222301   222301                                                                           000000000000000000  0000000000000000000000000000000000000000000000000000000000000000000000                                                                      
010000000063000120040302CALCULADORA DE MESA                     000001000        000063                                                                          000000                                      N      000000000000000000                                      01 CALCULADORA DE MESA                     13201001003         222301   31103010157         222301   13203001001                                                                  20040302        0000000000000100001000000000000000000000000000000000000000009398001000000000000000000000000000000000000000000000000000000000000000000000000000000000000000000000000000000000000000000000000000000000000000000000000000000000000000000000000000000000000000000000000000000000000000000000000000000000000000000000000000000000000000000000000000000000000000000000000000000000000000000000000000000000000000000000000000000000000000000000000000000000000000000000        00000000000000000000000000000000000000000020040302                                                     222301   222301                                                                           000000000000000000  0000000000000000000000000000000000000000000000000000000000000000000000                                                                      
010000000066000120040302MESA P/ MICROCOMPUTADOR                 000001000        000066                                                                          000000                                      N      000000000000000000                                      01 MESA P/ MICROCOMPUTADOR                 13201001003         222301   31103010157         222301   13203001001                                                                  20040302        0000000000000100001000000000000000000000000000000000000000009398001000000000000000000000000000000000000000000000000000000000000000000000000000000000000000000000000000000000000000000000000000000000000000000000000000000000000000000000000000000000000000000000000000000000000000000000000000000000000000000000000000000000000000000000000000000000000000000000000000000000000000000000000000000000000000000000000000000000000000000000000000000000000000000000        00000000000000000000000000000000000000000020040302                                                     222301   222301                                                                           000000000000000000  0000000000000000000000000000000000000000000000000000000000000000000000                                                                      
010000000067000120040302MESA P/ IMPRESSORA                      000001000        000067                                                                          000000                                      N      000000000000000000                                      01 MESA P/ IMPRESSORA                      13201001003         222301   31103010157         222301   13203001001                                                                  20040302        0000000000000100001000000000000000000000000000000000000000009398001000000000000000000000000000000000000000000000000000000000000000000000000000000000000000000000000000000000000000000000000000000000000000000000000000000000000000000000000000000000000000000000000000000000000000000000000000000000000000000000000000000000000000000000000000000000000000000000000000000000000000000000000000000000000000000000000000000000000000000000000000000000000000000000        00000000000000000000000000000000000000000020040302                                                     222301   222301                                                                           000000000000000000  0000000000000000000000000000000000000000000000000000000000000000000000                                                                      
010000000068000120040302MICROCOMPUTADOR (USUARIA: MONICA)       000001000        000068                                                                          000000                                      N      000000000000000000                                      01 MICROCOMPUTADOR (USUARIA: MONICA)       13201001003         222301   31103010157         222301   13203001001                                                                  20040302        0000000000000100001000000000000000000000000000000000000000009398001000000000000000000000000000000000000000000000000000000000000000000000000000000000000000000000000000000000000000000000000000000000000000000000000000000000000000000000000000000000000000000000000000000000000000000000000000000000000000000000000000000000000000000000000000000000000000000000000000000000000000000000000000000000000000000000000000000000000000000000000000000000000000000000        00000000000000000000000000000000000000000020040302                                                     222301   222301                                                                           000000000000000000  0000000000000000000000000000000000000000000000000000000000000000000000                                                                      
010000000069000120040302MONITOR DE VIDEO COLORIDO 15            000001000        000069                                                                          000000                                      N      000000000000000000                                      01 MONITOR DE VIDEO COLORIDO 15            13201001003         222301   31103010157         222301   13203001001                                                                  20040302        0000000000000100001000000000000000000000000000000000000000009398001000000000000000000000000000000000000000000000000000000000000000000000000000000000000000000000000000000000000000000000000000000000000000000000000000000000000000000000000000000000000000000000000000000000000000000000000000000000000000000000000000000000000000000000000000000000000000000000000000000000000000000000000000000000000000000000000000000000000000000000000000000000000000000000        00000000000000000000000000000000000000000020040302                                                     222301   222301                                                                           000000000000000000  0000000000000000000000000000000000000000000000000000000000000000000000                                                                      
010000000071000120040302ARMARIO DE MADEIRA C/ 1 PORTA(S) E 4 GAV000001000        000071                                                                          000000                                      N      000000000000000000                                      01 ARMARIO DE MADEIRA C/ 1 PORTA(S) E 4 GAV13201001003         222301   31103010157         222301   13203001001                                                                  20040302        0000000000000100001000000000000000000000000000000000000000009398001000000000000000000000000000000000000000000000000000000000000000000000000000000000000000000000000000000000000000000000000000000000000000000000000000000000000000000000000000000000000000000000000000000000000000000000000000000000000000000000000000000000000000000000000000000000000000000000000000000000000000000000000000000000000000000000000000000000000000000000000000000000000000000000        00000000000000000000000000000000000000000020040302                                                     222301   222301                                                                           000000000000000000  0000000000000000000000000000000000000000000000000000000000000000000000                                                                      
010000000072000120040302BEBEDOURO C/ GARRAFAO                   000001000        000072                                                                          000000                                      N      000000000000000000                                      01 BEBEDOURO C/ GARRAFAO                   13201001003         222301   31103010157         222301   13203001001                                                                  20040302        0000000000000100001000000000000000000000000000000000000000009398001000000000000000000000000000000000000000000000000000000000000000000000000000000000000000000000000000000000000000000000000000000000000000000000000000000000000000000000000000000000000000000000000000000000000000000000000000000000000000000000000000000000000000000000000000000000000000000000000000000000000000000000000000000000000000000000000000000000000000000000000000000000000000000000        00000000000000000000000000000000000000000020040302                                                     222301   222301                                                                           000000000000000000  0000000000000000000000000000000000000000000000000000000000000000000000                                                                      
010000000073000120040302ARMARIO DE ACO C/ 2 PORTA(S)            000001000        000073                                                                          000000                                      N      000000000000000000                                      01 ARMARIO DE ACO C/ 2 PORTA(S)            13201001003         222301   31103010157         222301   13203001001                                                                  20040302        0000000000000100001000000000000000000000000000000000000000009398001000000000000000000000000000000000000000000000000000000000000000000000000000000000000000000000000000000000000000000000000000000000000000000000000000000000000000000000000000000000000000000000000000000000000000000000000000000000000000000000000000000000000000000000000000000000000000000000000000000000000000000000000000000000000000000000000000000000000000000000000000000000000000000000        00000000000000000000000000000000000000000020040302                                                     222301   222301                                                                           000000000000000000  0000000000000000000000000000000000000000000000000000000000000000000000                                                                      
010000000074000120040302COPIADORA                               000001000        000074                                                                          000000                                      N      000000000000000000                                      01 COPIADORA                               13201001003         222301   31103010157         222301   13203001001                                                                  20040302        0000000000000100001000000000000000000000000000000000000000009398001000000000000000000000000000000000000000000000000000000000000000000000000000000000000000000000000000000000000000000000000000000000000000000000000000000000000000000000000000000000000000000000000000000000000000000000000000000000000000000000000000000000000000000000000000000000000000000000000000000000000000000000000000000000000000000000000000000000000000000000000000000000000000000000        00000000000000000000000000000000000000000020040302                                                     222301   222301                                                                           000000000000000000  0000000000000000000000000000000000000000000000000000000000000000000000                                                                      
010000000076000120040302ESTACAO DE TRABALHO EM L C/ 2 GAVETA(S) 000001000        000076                                                                          000000                                      N      000000000000000000                                      01 ESTACAO DE TRABALHO EM L C/ 2 GAVETA(S) 13201001003         222301   31103010157         222301   13203001001                                                                  20040302        0000000000000100001000000000000000000000000000000000000000009398001000000000000000000000000000000000000000000000000000000000000000000000000000000000000000000000000000000000000000000000000000000000000000000000000000000000000000000000000000000000000000000000000000000000000000000000000000000000000000000000000000000000000000000000000000000000000000000000000000000000000000000000000000000000000000000000000000000000000000000000000000000000000000000000        00000000000000000000000000000000000000000020040302                                                     222301   222301                                                                           000000000000000000  0000000000000000000000000000000000000000000000000000000000000000000000                                                                      
010000000077000120040302IMPRESSORA MATRICIAL                    000001000        000077                                                                          000000                                      N      000000000000000000                                      01 IMPRESSORA MATRICIAL                    13201001003         222301   31103010157         222301   13203001001                                                                  20040302        0000000000000100001000000000000000000000000000000000000000009398001000000000000000000000000000000000000000000000000000000000000000000000000000000000000000000000000000000000000000000000000000000000000000000000000000000000000000000000000000000000000000000000000000000000000000000000000000000000000000000000000000000000000000000000000000000000000000000000000000000000000000000000000000000000000000000000000000000000000000000000000000000000000000000000        00000000000000000000000000000000000000000020040302                                                     222301   222301                                                                           000000000000000000  0000000000000000000000000000000000000000000000000000000000000000000000                                                                      
010000000079000120040302CALCULADORA DE MESA                     000001000        000079                                                                          000000                                      N      000000000000000000                                      01 CALCULADORA DE MESA                     13201001003         222301   31103010157         222301   13203001001                                                                  20040302        0000000000000100001000000000000000000000000000000000000000009398001000000000000000000000000000000000000000000000000000000000000000000000000000000000000000000000000000000000000000000000000000000000000000000000000000000000000000000000000000000000000000000000000000000000000000000000000000000000000000000000000000000000000000000000000000000000000000000000000000000000000000000000000000000000000000000000000000000000000000000000000000000000000000000000        00000000000000000000000000000000000000000020040302                                                     222301   222301                                                                           000000000000000000  0000000000000000000000000000000000000000000000000000000000000000000000                                                                      
010000000080000120040302NO BREAK                                000001000        000080                                                                          000000                                      N      000000000000000000                                      01 NO BREAK                                13201001003         222301   31103010157         222301   13203001001                                                                  20040302        0000000000000100001000000000000000000000000000000000000000009398001000000000000000000000000000000000000000000000000000000000000000000000000000000000000000000000000000000000000000000000000000000000000000000000000000000000000000000000000000000000000000000000000000000000000000000000000000000000000000000000000000000000000000000000000000000000000000000000000000000000000000000000000000000000000000000000000000000000000000000000000000000000000000000000        00000000000000000000000000000000000000000020040302                                                     222301   222301                                                                           000000000000000000  0000000000000000000000000000000000000000000000000000000000000000000000                                                                      
010000000081000120040302MICROCOMPUTADOR (USUARIA: CARLA)        000001000        000081                                                                          000000                                      N      000000000000000000                                      01 MICROCOMPUTADOR (USUARIA: CARLA)        13201001003         222301   31103010157         222301   13203001001                                                                  20040302        0000000000000100001000000000000000000000000000000000000000009398001000000000000000000000000000000000000000000000000000000000000000000000000000000000000000000000000000000000000000000000000000000000000000000000000000000000000000000000000000000000000000000000000000000000000000000000000000000000000000000000000000000000000000000000000000000000000000000000000000000000000000000000000000000000000000000000000000000000000000000000000000000000000000000000        00000000000000000000000000000000000000000020040302                                                     222301   222301                                                                           000000000000000000  0000000000000000000000000000000000000000000000000000000000000000000000                                                                      
010000000082000120040302MONITOR DE VIDEO COLORIDO 15            000001000        000082                                                                          000000                                      N      000000000000000000                                      01 MONITOR DE VIDEO COLORIDO 15            13201001003         222301   31103010157         222301   13203001001                                                                  20040302        0000000000000100001000000000000000000000000000000000000000009398001000000000000000000000000000000000000000000000000000000000000000000000000000000000000000000000000000000000000000000000000000000000000000000000000000000000000000000000000000000000000000000000000000000000000000000000000000000000000000000000000000000000000000000000000000000000000000000000000000000000000000000000000000000000000000000000000000000000000000000000000000000000000000000000        00000000000000000000000000000000000000000020040302                                                     222301   222301                                                                           000000000000000000  0000000000000000000000000000000000000000000000000000000000000000000000                                                                      
010000000083000120040302CADEIRA FIXA DE COURVIM CINZA           000001000        000083                                                                          000000                                      N      000000000000000000                                      01 CADEIRA FIXA DE COURVIM CINZA           13201001003         222301   31103010157         222301   13203001001                                                                  20040302        0000000000000100001000000000000000000000000000000000000000009398001000000000000000000000000000000000000000000000000000000000000000000000000000000000000000000000000000000000000000000000000000000000000000000000000000000000000000000000000000000000000000000000000000000000000000000000000000000000000000000000000000000000000000000000000000000000000000000000000000000000000000000000000000000000000000000000000000000000000000000000000000000000000000000000        00000000000000000000000000000000000000000020040302                                                     222301   222301                                                                           000000000000000000  0000000000000000000000000000000000000000000000000000000000000000000000                                                                      
010000000084000120040302ESTACAO DE TRABALHO EM U                000001000        000084                                                                          000000                                      N      000000000000000000                                      01 ESTACAO DE TRABALHO EM U                13201001003         222301   31103010157         222301   13203001001                                                                  20040302        0000000000000100001000000000000000000000000000000000000000009398001000000000000000000000000000000000000000000000000000000000000000000000000000000000000000000000000000000000000000000000000000000000000000000000000000000000000000000000000000000000000000000000000000000000000000000000000000000000000000000000000000000000000000000000000000000000000000000000000000000000000000000000000000000000000000000000000000000000000000000000000000000000000000000000        00000000000000000000000000000000000000000020040302                                                     222301   222301                                                                           000000000000000000  0000000000000000000000000000000000000000000000000000000000000000000000                                                                      
010000000087000120040302MESA AUXILIAR DE MADEIRA C/ RODIZIOS    000001000        000087                                                                          000000                                      N      000000000000000000                                      01 MESA AUXILIAR DE MADEIRA C/ RODIZIOS    13201001003         222301   31103010157         222301   13203001001                                                                  20040302        0000000000000100001000000000000000000000000000000000000000009398001000000000000000000000000000000000000000000000000000000000000000000000000000000000000000000000000000000000000000000000000000000000000000000000000000000000000000000000000000000000000000000000000000000000000000000000000000000000000000000000000000000000000000000000000000000000000000000000000000000000000000000000000000000000000000000000000000000000000000000000000000000000000000000000        00000000000000000000000000000000000000000020040302                                                     222301   222301                                                                           000000000000000000  0000000000000000000000000000000000000000000000000000000000000000000000                                                                      
010000000088000120040302CADEIRA FIXA DE COURVIM CINZA           000001000        000088                                                                          000000                                      N      000000000000000000                                      01 CADEIRA FIXA DE COURVIM CINZA           13201001003         222301   31103010157         222301   13203001001                                                                  20040302        0000000000000100001000000000000000000000000000000000000000009398001000000000000000000000000000000000000000000000000000000000000000000000000000000000000000000000000000000000000000000000000000000000000000000000000000000000000000000000000000000000000000000000000000000000000000000000000000000000000000000000000000000000000000000000000000000000000000000000000000000000000000000000000000000000000000000000000000000000000000000000000000000000000000000000        00000000000000000000000000000000000000000020040302                                                     222301   222301                                                                           000000000000000000  0000000000000000000000000000000000000000000000000000000000000000000000                                                                      
010000000089000120040302LONGARINA C/ 4 LUGAR(ES)                000001000        000089                                                                          000000                                      N      000000000000000000                                      01 LONGARINA C/ 4 LUGAR(ES)                13201001003         222301   31103010157         222301   13203001001                                                                  20040302        0000000000000100001000000000000000000000000000000000000000009398001000000000000000000000000000000000000000000000000000000000000000000000000000000000000000000000000000000000000000000000000000000000000000000000000000000000000000000000000000000000000000000000000000000000000000000000000000000000000000000000000000000000000000000000000000000000000000000000000000000000000000000000000000000000000000000000000000000000000000000000000000000000000000000000        00000000000000000000000000000000000000000020040302                                                     222301   222301                                                                           000000000000000000  0000000000000000000000000000000000000000000000000000000000000000000000                                                                      
010000000090000120040302CADEIRA FIXA DE COURVIM CINZA           000001000        000090                                                                          000000                                      N      000000000000000000                                      01 CADEIRA FIXA DE COURVIM CINZA           13201001003         211201   31103010157         211201   13203001001                                                                  20040302        0000000000000100001000000000000000000000000000000000000000009398001000000000000000000000000000000000000000000000000000000000000000000000000000000000000000000000000000000000000000000000000000000000000000000000000000000000000000000000000000000000000000000000000000000000000000000000000000000000000000000000000000000000000000000000000000000000000000000000000000000000000000000000000000000000000000000000000000000000000000000000000000000000000000000000        00000000000000000000000000000000000000000020040302                                                     211201   211201                                                                           000000000000000000  0000000000000000000000000000000000000000000000000000000000000000000000                                                                      
010000000091000120040302MESA REVESTIDA EM FORMICA C/ ESTRUTURA D000001000        000091                                                                          000000                                      N      000000000000000000                                      01 MESA REVESTIDA EM FORMICA C/ ESTRUTURA D13201001003         211201   31103010157         211201   13203001001                                                                  20040302        0000000000000100001000000000000000000000000000000000000000009398001000000000000000000000000000000000000000000000000000000000000000000000000000000000000000000000000000000000000000000000000000000000000000000000000000000000000000000000000000000000000000000000000000000000000000000000000000000000000000000000000000000000000000000000000000000000000000000000000000000000000000000000000000000000000000000000000000000000000000000000000000000000000000000000        00000000000000000000000000000000000000000020040302                                                     211201   211201                                                                           000000000000000000  0000000000000000000000000000000000000000000000000000000000000000000000                                                                      
010000000093000120040302MONITOR DE VIDEO COLORIDO 15            000001000        000093                                                                          000000                                      N      000000000000000000                                      01 MONITOR DE VIDEO COLORIDO 15            13201001003         211201   31103010157         211201   13203001001                                                                  20040302        0000000000000100001000000000000000000000000000000000000000009398001000000000000000000000000000000000000000000000000000000000000000000000000000000000000000000000000000000000000000000000000000000000000000000000000000000000000000000000000000000000000000000000000000000000000000000000000000000000000000000000000000000000000000000000000000000000000000000000000000000000000000000000000000000000000000000000000000000000000000000000000000000000000000000000        00000000000000000000000000000000000000000020040302                                                     211201   211201                                                                           000000000000000000  0000000000000000000000000000000000000000000000000000000000000000000000                                                                      
010000000094000120040302CADEIRA FIXA DE COURVIM CINZA           000001000        000094                                                                          000000                                      N      000000000000000000                                      01 CADEIRA FIXA DE COURVIM CINZA           13201001003         211201   31103010157         211201   13203001001                                                                  20040302        0000000000000100001000000000000000000000000000000000000000009398001000000000000000000000000000000000000000000000000000000000000000000000000000000000000000000000000000000000000000000000000000000000000000000000000000000000000000000000000000000000000000000000000000000000000000000000000000000000000000000000000000000000000000000000000000000000000000000000000000000000000000000000000000000000000000000000000000000000000000000000000000000000000000000000        00000000000000000000000000000000000000000020040302                                                     211201   211201                                                                           000000000000000000  0000000000000000000000000000000000000000000000000000000000000000000000                                                                      
010000000095000120040302MESA REVESTIDA EM FORMICA C/ ESTRUTURA D000001000        000095                                                                          000000                                      N      000000000000000000                                      01 MESA REVESTIDA EM FORMICA C/ ESTRUTURA D13201001003         211201   31103010157         211201   13203001001                                                                  20040302        0000000000000100001000000000000000000000000000000000000000009398001000000000000000000000000000000000000000000000000000000000000000000000000000000000000000000000000000000000000000000000000000000000000000000000000000000000000000000000000000000000000000000000000000000000000000000000000000000000000000000000000000000000000000000000000000000000000000000000000000000000000000000000000000000000000000000000000000000000000000000000000000000000000000000000        00000000000000000000000000000000000000000020040302                                                     211201   211201                                                                           000000000000000000  0000000000000000000000000000000000000000000000000000000000000000000000                                                                      
010000000096000120040302MESA REVESTIDA EM FORMICA C/ ESTRUTURA D000001000        000096                                                                          000000                                      N      000000000000000000                                      01 MESA REVESTIDA EM FORMICA C/ ESTRUTURA D13201001003         211201   31103010157         211201   13203001001                                                                  20040302        0000000000000100001000000000000000000000000000000000000000009398001000000000000000000000000000000000000000000000000000000000000000000000000000000000000000000000000000000000000000000000000000000000000000000000000000000000000000000000000000000000000000000000000000000000000000000000000000000000000000000000000000000000000000000000000000000000000000000000000000000000000000000000000000000000000000000000000000000000000000000000000000000000000000000000        00000000000000000000000000000000000000000020040302                                                     211201   211201                                                                           000000000000000000  0000000000000000000000000000000000000000000000000000000000000000000000                                                                      
010000000097000120040302CADEIRA FIXA DE COURVIM                 000001000        000097                                                                          000000                                      N      000000000000000000                                      01 CADEIRA FIXA DE COURVIM                 13201001003         211201   31103010157         211201   13203001001                                                                  20040302        0000000000000100001000000000000000000000000000000000000000009398001000000000000000000000000000000000000000000000000000000000000000000000000000000000000000000000000000000000000000000000000000000000000000000000000000000000000000000000000000000000000000000000000000000000000000000000000000000000000000000000000000000000000000000000000000000000000000000000000000000000000000000000000000000000000000000000000000000000000000000000000000000000000000000000        00000000000000000000000000000000000000000020040302                                                     211201   211201                                                                           000000000000000000  0000000000000000000000000000000000000000000000000000000000000000000000                                                                      
010000000098000120040302CADEIRA FIXA DE COURVIM                 000001000        000098                                                                          000000                                      N      000000000000000000                                      01 CADEIRA FIXA DE COURVIM                 13201001003         211201   31103010157         211201   13203001001                                                                  20040302        0000000000000100001000000000000000000000000000000000000000009398001000000000000000000000000000000000000000000000000000000000000000000000000000000000000000000000000000000000000000000000000000000000000000000000000000000000000000000000000000000000000000000000000000000000000000000000000000000000000000000000000000000000000000000000000000000000000000000000000000000000000000000000000000000000000000000000000000000000000000000000000000000000000000000000        00000000000000000000000000000000000000000020040302                                                     211201   211201                                                                           000000000000000000  0000000000000000000000000000000000000000000000000000000000000000000000                                                                      
010000000101000120040302AUTOCLAVE P/ VULCANIZACAO DE 22 PNEUS   000001000        000101                                                                          000000                                      N      000000000000000000                                      01 AUTOCLAVE P/ VULCANIZACAO DE 22 PNEUS   13201001003         200101   31103010157         200101   13203001001                                                                  20040302        0000000000000100001000000000000000000000000000000000000000009398001000000000000000000000000000000000000000000000000000000000000000000000000000000000000000000000000000000000000000000000000000000000000000000000000000000000000000000000000000000000000000000000000000000000000000000000000000000000000000000000000000000000000000000000000000000000000000000000000000000000000000000000000000000000000000000000000000000000000000000000000000000000000000000000        00000000000000000000000000000000000000000020040302                                                     200101   200101                                                                           000000000000000000  0000000000000000000000000000000000000000000000000000000000000000000000                                                                      
010000000102000120040302AUTOCLAVE P/ VULCANIZACAO DE 22 PNEUS   000001000        000102                                                                          000000                                      N      000000000000000000                                      01 AUTOCLAVE P/ VULCANIZACAO DE 22 PNEUS   13201001003         200101   31103010157         200101   13203001001                                                                  20040302        0000000000000100001000000000000000000000000000000000000000009398001000000000000000000000000000000000000000000000000000000000000000000000000000000000000000000000000000000000000000000000000000000000000000000000000000000000000000000000000000000000000000000000000000000000000000000000000000000000000000000000000000000000000000000000000000000000000000000000000000000000000000000000000000000000000000000000000000000000000000000000000000000000000000000000        00000000000000000000000000000000000000000020040302                                                     200101   200101                                                                           000000000000000000  0000000000000000000000000000000000000000000000000000000000000000000000                                                                      
