010000013827025920001117TAG PADRAO QFREE                        000000001        000001TAG1                                                     00000101000009UNI004532                                      N      000000000000000000                                      01 HISTOR 1                                11030201011                                                                                                                                            0000000000004857002000000000000000000000000000000000000000004857002000000000000000000000000000000000000000000000000000000000000000000000000000000000000000000000000000000000000000000000000000000000000000000000000000820000000000000000000000000000000000000000000000000000000000000082000000000000000000000000000000000000000000000000000000000000000000000000000000000000000000000000000000000000000000000000000000000000000000000000000000000000000000000000        000000000000000000000000000000000000000000                                                                                                                                                       000000000000000000  0000000000000000000000000000000000000000000000000000000000000000000000                                                                      
010000086793026720010213TAG PADRAO QFREE                        000000001        000002TAG1                                                     00000101000003UNI087656                              JXW2322 N      000000000000000000                                      01 HISTOR 2                                11030201010                                                                                                                            20050603        0000000000004914002000000000000000000000000000000000000000004814002000000000000000000000000000000000000000000000000000000000000000000000000000000000000000000000000000000000000000000000000000000000000000000000000000820000000000000000000000000000000000000000000000000000000000000082000000000000000000000000000000000000000000000000000000000000000000000000000000000000000000000000000000000000000000000000000000000000000000000000000000000000000000000000        000000000000000000000000000000000000000000                                                                                                                                                       000000000000000000  0000000000000000000000000000000000000000000000000000000000000000000000                                                                      
010000003440025920001115TAG PADRAO QFREE                        000000001        000003TAG1                                                     00000101000004UNI093215                                      N      000000000000000000                                      01 HISTOR 3                                11030201011                                                                                                                                            0000000000004857002000000000000000000000000000000000000000004857002000000000000000000000000000000000000000000000000000000000000000000000000000000000000000000000000000000000000000000000000000000000000000000000000000820000000000000000000000000000000000000000000000000000000000000082000000000000000000000000000000000000000000000000000000000000000000000000000000000000000000000000000000000000000000000000000000000000000000000000000000000000000000000000        000000000000000000000000000000000000000000                                                                                                                                                       000000000000000000  0000000000000000000000000000000000000000000000000000000000000000000000                                                                      
010000004107025920001115TAG PADRAO QFREE                        000000001        000004TAG1                                                     00000101000004UNI009986                                      N      000000000000000000                                      01 HISTOR 4                                11030201011                                                                                                                            20001115        0000000000004857002000000000000000000000000000000000000000004857002000000000000000000000000000000000000000000000000000000000000000000000000000000000000000000000000000000000000000000000000000000000000000000000000045330000000000000000000000000000000000000000000000000000000000000082000000000000000000000000000000000000000000000000000000000000000000000000000000000000000000000000000000000000000000000000000000000000000000000000000000000000000000000000        000000000000000000000000000000000000000000                                                                                                                                                       000000000000000000  0000000000000000000000000000000000000000000000000000000000000000000000                                                                      
010000007710025920001115TAG PADRAO QFREE                        000000001        000005TAG1                                                     00000101000003UNI007568                              CTJ6800 N      000000000000000000                                      01 HISTOR 5                                11030201011                                                                                                                                            0000000000004857002000000000000000000000000000000000000000004857002000000000000000000000000000000000000000000000000000000000000000000000000000000000000000000000000000000000000000000000000000000000000000000000000000820000000000000000000000000000000000000000000000000000000000000082000000000000000000000000000000000000000000000000000000000000000000000000000000000000000000000000000000000000000000000000000000000000000000000000000000000000000000000000        000000000000000000000000000000000000000000                                                                                                                                                       000000000000000000  0000000000000000000000000000000000000000000000000000000000000000000000                                                                      
010000004110025920001115TAG PADRAO QFREE                        000000001        000006TAG1                                                     00000101000003UNI003231                              CRN0177 N      000000000000000000                                      01 HISTOR 6                                11030201011                                                                                                                                            0000000000004857002000000000000000000000000000000000000000004857002000000000000000000000000000000000000000000000000000000000000000000000000000000000000000000000000000000000000000000000000000000000000000000000000000820000000000000000000000000000000000000000000000000000000000000082000000000000000000000000000000000000000000000000000000000000000000000000000000000000000000000000000000000000000000000000000000000000000000000000000000000000000000000000        000000000000000000000000000000000000000000                                                                                                                                                       000000000000000000  0000000000000000000000000000000000000000000000000000000000000000000000                                                                      
010000004065025920001115TAG PADRAO QFREE                        000000001        000007TAG1                                                     00000101000004UNI003231                                      N      000000000000000000                                      01 HISTOR 7                                11030201011                                                                                                                                            0000000000004857002000000000000000000000000000000000000000004857002000000000000000000000000000000000000000000000000000000000000000000000000000000000000000000000000000000000000000000000000000000000000000000000000000820000000000000000000000000000000000000000000000000000000000000082000000000000000000000000000000000000000000000000000000000000000000000000000000000000000000000000000000000000000000000000000000000000000000000000000000000000000000000000        000000000000000000000000000000000000000000                                                                                                                                                       000000000000000000  0000000000000000000000000000000000000000000000000000000000000000000000                                                                      
010000007725025920001115TAG PADRAO QFREE                        000000001        000008TAG1                                                     00000101000004UNI007568                                      N      000000000000000000                                      01 HISTOR 8                                11030201010                                                                                                                            20001115        0000000000004857002000000000000000000000000000000000000000004857002000000000000000000000000000000000000000000000000000000000000000000000000000000000000000000000000000000000000000000000000000000000000000000000000045330000000000000000000000000000000000000000000000000000000000000082000000000000000000000000000000000000000000000000000000000000000000000000000000000000000000000000000000000000000000000000000000000000000000000000000000000000000000000000        000000000000000000000000000000000000000000                                                                                                                                                       000000000000000000  0000000000000000000000000000000000000000000000000000000000000000000000                                                                      
